{
  "address": "0x6EA48b89df4BA7518a9B6D72878dDC421Cfb3ce7",
  "abi": [
    {
      "inputs": [],
      "name": "Marketplace_InvalidUser",
      "type": "error"
    },
    {
      "inputs": [],
      "name": "Marketplace_UserAlreadyExists",
      "type": "error"
    },
    {
      "inputs": [],
      "name": "Marketplace__IndexOutOfBounds",
      "type": "error"
    },
    {
      "inputs": [],
      "name": "Marketplace__InvalidAccountType",
      "type": "error"
    },
    {
      "inputs": [],
      "name": "Marketplace__OfferAlreadyAccepted",
      "type": "error"
    },
    {
      "inputs": [],
      "name": "Marketplace__OfferAlreadyExists",
      "type": "error"
    },
    {
      "inputs": [],
      "name": "Marketplace__OfferNotRemovable",
      "type": "error"
    },
    {
      "inputs": [],
      "name": "Marketplace__OnlyBuyersAllowed",
      "type": "error"
    },
    {
      "inputs": [],
      "name": "Marketplace__OnlySellersAllowed",
      "type": "error"
    },
    {
      "inputs": [],
      "name": "Marketplace__RequestLocked",
      "type": "error"
    },
    {
      "inputs": [],
      "name": "Marketplace__UnauthorizedBuyer",
      "type": "error"
    },
    {
      "inputs": [],
      "name": "Marketplace__UnauthorizedRemoval",
      "type": "error"
    },
    {
      "anonymous": false,
      "inputs": [
        {
          "indexed": true,
          "internalType": "uint256",
          "name": "offerId",
          "type": "uint256"
        },
        {
          "indexed": true,
          "internalType": "address",
          "name": "buyerAddress",
          "type": "address"
        },
        {
          "indexed": false,
          "internalType": "bool",
          "name": "isAccepted",
          "type": "bool"
        }
      ],
      "name": "OfferAccepted",
      "type": "event"
    },
    {
      "anonymous": false,
      "inputs": [
        {
          "indexed": true,
          "internalType": "uint256",
          "name": "offerId",
          "type": "uint256"
        },
        {
          "indexed": true,
          "internalType": "address",
          "name": "sellerAddress",
          "type": "address"
        },
        {
          "indexed": false,
          "internalType": "string",
          "name": "storeName",
          "type": "string"
        },
        {
          "indexed": false,
          "internalType": "int256",
          "name": "price",
          "type": "int256"
        },
        {
          "indexed": false,
          "internalType": "uint256",
          "name": "requestId",
          "type": "uint256"
        },
        {
          "indexed": false,
          "internalType": "string[]",
          "name": "images",
          "type": "string[]"
        },
        {
          "indexed": false,
          "internalType": "uint256",
          "name": "sellerId",
          "type": "uint256"
        },
        {
          "indexed": false,
          "internalType": "uint256[]",
          "name": "sellerIds",
          "type": "uint256[]"
        }
      ],
      "name": "OfferCreated",
      "type": "event"
    },
    {
      "anonymous": false,
      "inputs": [
        {
          "indexed": true,
          "internalType": "uint256",
          "name": "offerId",
          "type": "uint256"
        },
        {
          "indexed": true,
          "internalType": "address",
          "name": "sellerAddress",
          "type": "address"
        }
      ],
      "name": "OfferRemoved",
      "type": "event"
    },
    {
      "anonymous": false,
      "inputs": [
        {
          "indexed": true,
          "internalType": "uint256",
          "name": "requestId",
          "type": "uint256"
        },
        {
          "indexed": true,
          "internalType": "uint256",
          "name": "offerId",
          "type": "uint256"
        },
        {
          "indexed": true,
          "internalType": "uint256",
          "name": "sellerId",
          "type": "uint256"
        },
        {
          "indexed": false,
          "internalType": "uint256",
          "name": "updatedAt",
          "type": "uint256"
        },
        {
          "indexed": false,
          "internalType": "int256",
          "name": "sellersPriceQuote",
          "type": "int256"
        }
      ],
      "name": "RequestAccepted",
      "type": "event"
    },
    {
      "anonymous": false,
      "inputs": [
        {
          "indexed": true,
          "internalType": "uint256",
          "name": "requestId",
          "type": "uint256"
        },
        {
          "indexed": true,
          "internalType": "address",
          "name": "buyerAddress",
          "type": "address"
        },
        {
          "indexed": false,
          "internalType": "string",
          "name": "requestName",
          "type": "string"
        },
        {
          "indexed": false,
          "internalType": "int256",
          "name": "latitude",
          "type": "int256"
        },
        {
          "indexed": false,
          "internalType": "int256",
          "name": "longitude",
          "type": "int256"
        },
        {
          "indexed": false,
          "internalType": "string[]",
          "name": "images",
          "type": "string[]"
        },
        {
          "indexed": false,
          "internalType": "uint8",
          "name": "lifecycle",
          "type": "uint8"
        },
        {
          "indexed": false,
          "internalType": "string",
          "name": "description",
          "type": "string"
        },
        {
          "indexed": false,
          "internalType": "uint256",
          "name": "buyerId",
          "type": "uint256"
        },
        {
          "indexed": false,
          "internalType": "uint256[]",
          "name": "sellerIds",
          "type": "uint256[]"
        },
        {
          "indexed": false,
          "internalType": "int256",
          "name": "sellersPriceQuote",
          "type": "int256"
        },
        {
          "indexed": false,
          "internalType": "uint256",
          "name": "lockedSellerId",
          "type": "uint256"
        },
        {
          "indexed": false,
          "internalType": "uint256",
          "name": "createdAt",
          "type": "uint256"
        },
        {
          "indexed": false,
          "internalType": "uint256",
          "name": "updatedAt",
          "type": "uint256"
        }
      ],
      "name": "RequestCreated",
      "type": "event"
    },
    {
      "anonymous": false,
      "inputs": [
        {
          "indexed": true,
          "internalType": "address",
          "name": "sellerAddress",
          "type": "address"
        },
        {
          "indexed": false,
          "internalType": "uint256",
          "name": "storeId",
          "type": "uint256"
        },
        {
          "indexed": false,
          "internalType": "string",
          "name": "storeName",
          "type": "string"
        },
        {
          "indexed": false,
          "internalType": "int256",
          "name": "latitude",
          "type": "int256"
        },
        {
          "indexed": false,
          "internalType": "int256",
          "name": "longitude",
          "type": "int256"
        }
      ],
      "name": "StoreCreated",
      "type": "event"
    },
    {
      "anonymous": false,
      "inputs": [
        {
          "indexed": true,
          "internalType": "address",
          "name": "userAddress",
          "type": "address"
        },
        {
          "indexed": false,
          "internalType": "uint256",
          "name": "userId",
          "type": "uint256"
        },
        {
          "indexed": false,
          "internalType": "string",
          "name": "username",
          "type": "string"
        },
        {
          "indexed": false,
          "internalType": "uint8",
          "name": "accountType",
          "type": "uint8"
        }
      ],
      "name": "UserCreated",
      "type": "event"
    },
    {
      "anonymous": false,
      "inputs": [
        {
          "indexed": true,
          "internalType": "address",
          "name": "userAddress",
          "type": "address"
        },
        {
          "indexed": false,
          "internalType": "uint256",
          "name": "userId",
          "type": "uint256"
        },
        {
          "indexed": false,
          "internalType": "string",
          "name": "username",
          "type": "string"
        },
        {
          "indexed": false,
          "internalType": "uint8",
          "name": "accountType",
          "type": "uint8"
        }
      ],
      "name": "UserUpdated",
      "type": "event"
    },
    {
      "inputs": [
        {
          "internalType": "uint256",
          "name": "_offerId",
          "type": "uint256"
        }
      ],
      "name": "acceptOffer",
      "outputs": [],
      "stateMutability": "nonpayable",
      "type": "function"
    },
    {
      "inputs": [
        {
          "internalType": "int256",
          "name": "_price",
          "type": "int256"
        },
        {
          "internalType": "string[]",
          "name": "_images",
          "type": "string[]"
        },
        {
          "internalType": "uint256",
          "name": "_requestId",
          "type": "uint256"
        },
        {
          "internalType": "string",
          "name": "_storeName",
          "type": "string"
        }
      ],
      "name": "createOffer",
      "outputs": [],
      "stateMutability": "nonpayable",
      "type": "function"
    },
    {
      "inputs": [
        {
          "internalType": "string",
          "name": "_name",
          "type": "string"
        },
        {
          "internalType": "string",
          "name": "_description",
          "type": "string"
        },
        {
          "internalType": "string[]",
          "name": "_images",
          "type": "string[]"
        },
        {
          "internalType": "int256",
          "name": "_latitude",
          "type": "int256"
        },
        {
          "internalType": "int256",
          "name": "_longitude",
          "type": "int256"
        }
      ],
      "name": "createRequest",
      "outputs": [],
      "stateMutability": "nonpayable",
      "type": "function"
    },
    {
      "inputs": [
        {
          "internalType": "string",
          "name": "_name",
          "type": "string"
        },
        {
          "internalType": "string",
          "name": "_description",
          "type": "string"
        },
        {
          "internalType": "string",
          "name": "_phone",
          "type": "string"
        },
        {
          "internalType": "int256",
          "name": "_latitude",
          "type": "int256"
        },
        {
          "internalType": "int256",
          "name": "_longitude",
          "type": "int256"
        }
      ],
      "name": "createStore",
      "outputs": [],
      "stateMutability": "nonpayable",
      "type": "function"
    },
    {
      "inputs": [
        {
          "internalType": "string",
          "name": "_username",
          "type": "string"
        },
        {
          "internalType": "string",
          "name": "_phone",
          "type": "string"
        },
        {
          "internalType": "int256",
          "name": "_latitude",
          "type": "int256"
        },
        {
          "internalType": "int256",
          "name": "_longitude",
          "type": "int256"
        },
        {
          "internalType": "enum Marketplace.AccountType",
          "name": "_accountType",
          "type": "uint8"
        }
      ],
      "name": "createUser",
      "outputs": [],
      "stateMutability": "nonpayable",
      "type": "function"
    },
    {
      "inputs": [
        {
          "internalType": "uint256",
          "name": "offerId",
          "type": "uint256"
        },
        {
          "internalType": "uint256",
          "name": "index",
          "type": "uint256"
        }
      ],
      "name": "getOfferImageByIndex",
      "outputs": [
        {
          "internalType": "string",
          "name": "",
          "type": "string"
        }
      ],
      "stateMutability": "view",
      "type": "function"
    },
    {
      "inputs": [
        {
          "internalType": "uint256",
          "name": "offerId",
          "type": "uint256"
        }
      ],
      "name": "getOfferImagesLength",
      "outputs": [
        {
          "internalType": "uint256",
          "name": "",
          "type": "uint256"
        }
      ],
      "stateMutability": "view",
      "type": "function"
    },
    {
      "inputs": [
        {
          "internalType": "uint256",
          "name": "requestId",
          "type": "uint256"
        },
        {
          "internalType": "uint256",
          "name": "index",
          "type": "uint256"
        }
      ],
      "name": "getRequestImageByIndex",
      "outputs": [
        {
          "internalType": "string",
          "name": "",
          "type": "string"
        }
      ],
      "stateMutability": "view",
      "type": "function"
    },
    {
      "inputs": [
        {
          "internalType": "uint256",
          "name": "requestId",
          "type": "uint256"
        }
      ],
      "name": "getRequestImagesLength",
      "outputs": [
        {
          "internalType": "uint256",
          "name": "",
          "type": "uint256"
        }
      ],
      "stateMutability": "view",
      "type": "function"
    },
    {
      "inputs": [
        {
          "internalType": "uint256",
          "name": "requestId",
          "type": "uint256"
        },
        {
          "internalType": "uint256",
          "name": "index",
          "type": "uint256"
        }
      ],
      "name": "getRequestSellerIdByIndex",
      "outputs": [
        {
          "internalType": "uint256",
          "name": "",
          "type": "uint256"
        }
      ],
      "stateMutability": "view",
      "type": "function"
    },
    {
      "inputs": [
        {
          "internalType": "uint256",
          "name": "requestId",
          "type": "uint256"
        }
      ],
      "name": "getRequestSellerIdsLength",
      "outputs": [
        {
          "internalType": "uint256",
          "name": "",
          "type": "uint256"
        }
      ],
      "stateMutability": "view",
      "type": "function"
    },
    {
      "inputs": [
        {
          "internalType": "uint256",
          "name": "",
          "type": "uint256"
        }
      ],
      "name": "offers",
      "outputs": [
        {
          "internalType": "uint256",
          "name": "id",
          "type": "uint256"
        },
        {
          "internalType": "int256",
          "name": "price",
          "type": "int256"
        },
        {
          "internalType": "uint256",
          "name": "requestId",
          "type": "uint256"
        },
        {
          "internalType": "string",
          "name": "storeName",
          "type": "string"
        },
        {
          "internalType": "uint256",
          "name": "sellerId",
          "type": "uint256"
        },
        {
          "internalType": "bool",
          "name": "isAccepted",
          "type": "bool"
        },
        {
          "internalType": "uint256",
          "name": "createdAt",
          "type": "uint256"
        },
        {
          "internalType": "uint256",
          "name": "updatedAt",
          "type": "uint256"
        }
      ],
      "stateMutability": "view",
      "type": "function"
    },
    {
      "inputs": [
        {
          "internalType": "uint256",
          "name": "_offerId",
          "type": "uint256"
        }
      ],
      "name": "removeOffer",
      "outputs": [],
      "stateMutability": "nonpayable",
      "type": "function"
    },
    {
      "inputs": [
        {
          "internalType": "uint256",
          "name": "",
          "type": "uint256"
        }
      ],
      "name": "requests",
      "outputs": [
        {
          "internalType": "uint256",
          "name": "id",
          "type": "uint256"
        },
        {
          "internalType": "string",
          "name": "name",
          "type": "string"
        },
        {
          "internalType": "uint256",
          "name": "buyerId",
          "type": "uint256"
        },
        {
          "internalType": "int256",
          "name": "sellersPriceQuote",
          "type": "int256"
        },
        {
          "internalType": "uint256",
          "name": "lockedSellerId",
          "type": "uint256"
        },
        {
          "internalType": "string",
          "name": "description",
          "type": "string"
        },
        {
          "internalType": "uint256",
          "name": "createdAt",
          "type": "uint256"
        },
        {
          "internalType": "enum Marketplace.RequestLifecycle",
          "name": "lifecycle",
          "type": "uint8"
        },
        {
          "components": [
            {
              "internalType": "int256",
              "name": "latitude",
              "type": "int256"
            },
            {
              "internalType": "int256",
              "name": "longitude",
              "type": "int256"
            }
          ],
          "internalType": "struct Marketplace.Location",
          "name": "location",
          "type": "tuple"
        },
        {
          "internalType": "uint256",
          "name": "updatedAt",
          "type": "uint256"
        }
      ],
      "stateMutability": "view",
      "type": "function"
    },
    {
      "inputs": [
        {
          "internalType": "string",
          "name": "_username",
          "type": "string"
        },
        {
          "internalType": "string",
          "name": "_phone",
          "type": "string"
        },
        {
          "internalType": "int256",
          "name": "_latitude",
          "type": "int256"
        },
        {
          "internalType": "int256",
          "name": "_longitude",
          "type": "int256"
        },
        {
          "internalType": "enum Marketplace.AccountType",
          "name": "_accountType",
          "type": "uint8"
        }
      ],
      "name": "updateUser",
      "outputs": [],
      "stateMutability": "nonpayable",
      "type": "function"
    },
    {
      "inputs": [
        {
          "internalType": "address",
          "name": "user",
          "type": "address"
        }
      ],
      "name": "userStoreCount",
      "outputs": [
        {
          "internalType": "uint256",
          "name": "",
          "type": "uint256"
        }
      ],
      "stateMutability": "view",
      "type": "function"
    },
    {
      "inputs": [
        {
          "internalType": "address",
          "name": "",
          "type": "address"
        },
        {
          "internalType": "uint256",
          "name": "",
          "type": "uint256"
        }
      ],
      "name": "userStoreIds",
      "outputs": [
        {
          "internalType": "uint256",
          "name": "",
          "type": "uint256"
        }
      ],
      "stateMutability": "view",
      "type": "function"
    },
    {
      "inputs": [
        {
          "internalType": "address",
          "name": "",
          "type": "address"
        },
        {
          "internalType": "uint256",
          "name": "",
          "type": "uint256"
        }
      ],
      "name": "userStores",
      "outputs": [
        {
          "internalType": "uint256",
          "name": "id",
          "type": "uint256"
        },
        {
          "internalType": "string",
          "name": "name",
          "type": "string"
        },
        {
          "internalType": "string",
          "name": "description",
          "type": "string"
        },
        {
          "internalType": "string",
          "name": "phone",
          "type": "string"
        },
        {
          "components": [
            {
              "internalType": "int256",
              "name": "latitude",
              "type": "int256"
            },
            {
              "internalType": "int256",
              "name": "longitude",
              "type": "int256"
            }
          ],
          "internalType": "struct Marketplace.Location",
          "name": "location",
          "type": "tuple"
        }
      ],
      "stateMutability": "view",
      "type": "function"
    },
    {
      "inputs": [
        {
          "internalType": "address",
          "name": "",
          "type": "address"
        }
      ],
      "name": "users",
      "outputs": [
        {
          "internalType": "uint256",
          "name": "id",
          "type": "uint256"
        },
        {
          "internalType": "string",
          "name": "username",
          "type": "string"
        },
        {
          "internalType": "string",
          "name": "phone",
          "type": "string"
        },
        {
          "components": [
            {
              "internalType": "int256",
              "name": "latitude",
              "type": "int256"
            },
            {
              "internalType": "int256",
              "name": "longitude",
              "type": "int256"
            }
          ],
          "internalType": "struct Marketplace.Location",
          "name": "location",
          "type": "tuple"
        },
        {
          "internalType": "uint256",
          "name": "createdAt",
          "type": "uint256"
        },
        {
          "internalType": "uint256",
          "name": "updatedAt",
          "type": "uint256"
        },
        {
          "internalType": "enum Marketplace.AccountType",
          "name": "accountType",
          "type": "uint8"
        }
      ],
      "stateMutability": "view",
      "type": "function"
    }
  ],
  "transactionHash": "0x1ebfd6b02e186ca4500ae98e79879ee7d32e21b326e5487aa00a9a5a9985d728",
  "args": [],
  "numDeployments": 2,
  "solcInputHash": "7e5a2474b25463ce02a53d16c11b96f0",
  "bytecode": "0x608060405234801561001057600080fd5b506138a2806100206000396000f3fe608060405234801561001057600080fd5b50600436106101215760003560e01c80638a72ea6a116100ad578063c538d2eb11610071578063c538d2eb146103a4578063c815729d146103d4578063d82926dc146103f0578063d9cca5091461040c578063ea21e2c41461042857610121565b80638a72ea6a146102bb57806392ea2c57146102f257806395a0f9c714610322578063a87430ba1461033e578063b277d5901461037457610121565b8063340dbe5f116100f4578063340dbe5f146101be5780633c0e7edb146101ee5780633fd4fe1a1461021e57806381d12c581461024e578063858bb8c01461028757610121565b806309ce2724146101265780631058dcd61461014257806316865afa1461015e57806317d672e81461018e575b600080fd5b610140600480360381019061013b919061290f565b610444565b005b61015c60048036038101906101579190612a91565b6108b4565b005b61017860048036038101906101739190612803565b610b5a565b6040516101859190612ff1565b60405180910390f35b6101a860048036038101906101a39190612b60565b610ba6565b6040516101b59190612ff1565b60405180910390f35b6101d860048036038101906101d39190612b8d565b610bc9565b6040516101e59190612e83565b60405180910390f35b61020860048036038101906102039190612830565b610ce0565b6040516102159190612ff1565b60405180910390f35b61023860048036038101906102339190612b60565b610d11565b6040516102459190612ff1565b60405180910390f35b61026860048036038101906102639190612b60565b610d34565b60405161027e9a999897969594939291906131ec565b60405180910390f35b6102a1600480360381019061029c9190612830565b610ec3565b6040516102b2959493929190613106565b60405180910390f35b6102d560048036038101906102d09190612b60565b6110bc565b6040516102e9989796959493929190613035565b60405180910390f35b61030c60048036038101906103079190612b60565b611199565b6040516103199190612ff1565b60405180910390f35b61033c60048036038101906103379190612b60565b6111bc565b005b61035860048036038101906103539190612803565b611525565b60405161036b979695949392919061316e565b60405180910390f35b61038e60048036038101906103899190612b8d565b6116a2565b60405161039b9190612ff1565b60405180910390f35b6103be60048036038101906103b99190612b8d565b611731565b6040516103cb9190612e83565b60405180910390f35b6103ee60048036038101906103e99190612b60565b611848565b005b61040a600480360381019061040591906129de565b611cb4565b005b610426600480360381019061042191906129de565b611e4e565b005b610442600480360381019061043d9190612870565b612133565b005b60006001811115610458576104576136ba565b5b600260003373ffffffffffffffffffffffffffffffffffffffff1673ffffffffffffffffffffffffffffffffffffffff16815260200190815260200160002060070160009054906101000a900460ff1660018111156104ba576104b96136ba565b5b146104f1576040517f9e3d0d6a00000000000000000000000000000000000000000000000000000000815260040160405180910390fd5b600060405180604001604052808481526020018381525090506007600081548092919061051d90613642565b9190505550600060075490506000604051806101a00160405280838152602001898152602001600260003373ffffffffffffffffffffffffffffffffffffffff1673ffffffffffffffffffffffffffffffffffffffff16815260200190815260200160002060000154815260200160008152602001600067ffffffffffffffff8111156105ad576105ac613776565b5b6040519080825280602002602001820160405280156105db5781602001602082028036833780820191505090505b508152602001600067ffffffffffffffff8111156105fc576105fb613776565b5b60405190808252806020026020018201604052801561062a5781602001602082028036833780820191505090505b508152602001600081526020018881526020018781526020014281526020016000600481111561065d5761065c6136ba565b5b815260200184815260200142815250905080600360008481526020019081526020016000206000820151816000015560208201518160010190805190602001906106a89291906124ae565b50604082015181600201556060820151816003015560808201518160040190805190602001906106d9929190612534565b5060a08201518160050190805190602001906106f6929190612534565b5060c0820151816006015560e082015181600701908051906020019061071d9291906124ae565b5061010082015181600801908051906020019061073b929190612581565b50610120820151816009015561014082015181600a0160006101000a81548160ff02191690836004811115610773576107726136ba565b5b021790555061016082015181600b016000820151816000015560208201518160010155505061018082015181600d01559050503373ffffffffffffffffffffffffffffffffffffffff16827f56ca0afdd5f54238e27cf178a4bd73abd99ea55a21defd28381b76d0761993ae8a88888b600060048111156107f7576107f66136ba565b5b8e600260003373ffffffffffffffffffffffffffffffffffffffff1673ffffffffffffffffffffffffffffffffffffffff16815260200190815260200160002060000154600067ffffffffffffffff81111561085657610855613776565b5b6040519080825280602002602001820160405280156108845781602001602082028036833780820191505090505b5060008042426040516108a29c9b9a99989796959493929190612ea5565b60405180910390a35050505050505050565b6001808111156108c7576108c66136ba565b5b600260003373ffffffffffffffffffffffffffffffffffffffff1673ffffffffffffffffffffffffffffffffffffffff16815260200190815260200160002060070160009054906101000a900460ff166001811115610929576109286136ba565b5b14610960576040517f94da80a300000000000000000000000000000000000000000000000000000000815260040160405180910390fd5b600060405180604001604052808481526020018381525090506006600081548092919061098c90613642565b91905055506000600654905060006040518060a00160405280838152602001898152602001888152602001878152602001848152509050806000803373ffffffffffffffffffffffffffffffffffffffff1673ffffffffffffffffffffffffffffffffffffffff1681526020019081526020016000206000848152602001908152602001600020600082015181600001556020820151816001019080519060200190610a399291906124ae565b506040820151816002019080519060200190610a569291906124ae565b506060820151816003019080519060200190610a739291906124ae565b5060808201518160040160008201518160000155602082015181600101555050905050600160003373ffffffffffffffffffffffffffffffffffffffff1673ffffffffffffffffffffffffffffffffffffffff1681526020019081526020016000208290806001815401808255809150506001900390600052602060002001600090919091909150553373ffffffffffffffffffffffffffffffffffffffff167fd9d5542da55e90f155387919b65ef4f3e32cbc5858ca7850b1e2896b9239359c838a8888604051610b4894939291906130ba565b60405180910390a25050505050505050565b6000600160008373ffffffffffffffffffffffffffffffffffffffff1673ffffffffffffffffffffffffffffffffffffffff168152602001908152602001600020805490509050919050565b600060046000838152602001908152602001600020600201805490509050919050565b606060036000848152602001908152602001600020600801805490508210610c1d576040517f51eb17aa00000000000000000000000000000000000000000000000000000000815260040160405180910390fd5b600360008481526020019081526020016000206008018281548110610c4557610c44613747565b5b906000526020600020018054610c5a906135c5565b80601f0160208091040260200160405190810160405280929190818152602001828054610c86906135c5565b8015610cd35780601f10610ca857610100808354040283529160200191610cd3565b820191906000526020600020905b815481529060010190602001808311610cb657829003601f168201915b5050505050905092915050565b60016020528160005260406000208181548110610cfc57600080fd5b90600052602060002001600091509150505481565b600060036000838152602001908152602001600020600801805490509050919050565b6003602052806000526040600020600091509050806000015490806001018054610d5d906135c5565b80601f0160208091040260200160405190810160405280929190818152602001828054610d89906135c5565b8015610dd65780601f10610dab57610100808354040283529160200191610dd6565b820191906000526020600020905b815481529060010190602001808311610db957829003601f168201915b505050505090806002015490806003015490806006015490806007018054610dfd906135c5565b80601f0160208091040260200160405190810160405280929190818152602001828054610e29906135c5565b8015610e765780601f10610e4b57610100808354040283529160200191610e76565b820191906000526020600020905b815481529060010190602001808311610e5957829003601f168201915b50505050509080600901549080600a0160009054906101000a900460ff169080600b01604051806040016040529081600082015481526020016001820154815250509080600d015490508a565b600060205281600052604060002060205280600052604060002060009150915050806000015490806001018054610ef9906135c5565b80601f0160208091040260200160405190810160405280929190818152602001828054610f25906135c5565b8015610f725780601f10610f4757610100808354040283529160200191610f72565b820191906000526020600020905b815481529060010190602001808311610f5557829003601f168201915b505050505090806002018054610f87906135c5565b80601f0160208091040260200160405190810160405280929190818152602001828054610fb3906135c5565b80156110005780601f10610fd557610100808354040283529160200191611000565b820191906000526020600020905b815481529060010190602001808311610fe357829003601f168201915b505050505090806003018054611015906135c5565b80601f0160208091040260200160405190810160405280929190818152602001828054611041906135c5565b801561108e5780601f106110635761010080835404028352916020019161108e565b820191906000526020600020905b81548152906001019060200180831161107157829003601f168201915b5050505050908060040160405180604001604052908160008201548152602001600182015481525050905085565b60046020528060005260406000206000915090508060000154908060010154908060030154908060040180546110f1906135c5565b80601f016020809104026020016040519081016040528092919081815260200182805461111d906135c5565b801561116a5780601f1061113f5761010080835404028352916020019161116a565b820191906000526020600020905b81548152906001019060200180831161114d57829003601f168201915b5050505050908060050154908060060160009054906101000a900460ff16908060070154908060080154905088565b600060036000838152602001908152602001600020600401805490509050919050565b6000600460008381526020019081526020016000209050600060036000836003015481526020019081526020016000209050600260003373ffffffffffffffffffffffffffffffffffffffff1673ffffffffffffffffffffffffffffffffffffffff1681526020019081526020016000206000015482600501541461126d576040517f4dd746a000000000000000000000000000000000000000000000000000000000815260040160405180910390fd5b610384826008015461127f9190613422565b4211156112b8576040517fbca0995e00000000000000000000000000000000000000000000000000000000815260040160405180910390fd5b61038481600d01546112ca9190613422565b4211801561130d5750600260048111156112e7576112e66136ba565b5b81600a0160009054906101000a900460ff16600481111561130b5761130a6136ba565b5b145b15611344576040517fd7fc006600000000000000000000000000000000000000000000000000000000815260040160405180910390fd5b6000806000905060005b83600401805490508110156113a857846005015484600401828154811061137857611377613747565b5b9060005260206000200154141561139557809250600191506113a8565b80806113a090613642565b91505061134e565b5080156114605760008290505b600184600401805490506113c99190613478565b81101561143457836004016001826113e19190613422565b815481106113f2576113f1613747565b5b906000526020600020015484600401828154811061141357611412613747565b5b9060005260206000200181905550808061142c90613642565b9150506113b5565b508260040180548061144957611448613718565b5b600190038181906000526020600020016000905590555b60046000868152602001908152602001600020600080820160009055600182016000905560028201600061149491906125e1565b60038201600090556004820160006114ac9190612602565b60058201600090556006820160006101000a81549060ff02191690556007820160009055600882016000905550503373ffffffffffffffffffffffffffffffffffffffff16857f2e8af6a053bc85443cdcc0eb4bc27edb2a41dd5d1605e76bbd7f687f3f4adc6a60405160405180910390a35050505050565b600260205280600052604060002060009150905080600001549080600101805461154e906135c5565b80601f016020809104026020016040519081016040528092919081815260200182805461157a906135c5565b80156115c75780601f1061159c576101008083540402835291602001916115c7565b820191906000526020600020905b8154815290600101906020018083116115aa57829003601f168201915b5050505050908060020180546115dc906135c5565b80601f0160208091040260200160405190810160405280929190818152602001828054611608906135c5565b80156116555780601f1061162a57610100808354040283529160200191611655565b820191906000526020600020905b81548152906001019060200180831161163857829003601f168201915b5050505050908060030160405180604001604052908160008201548152602001600182015481525050908060050154908060060154908060070160009054906101000a900460ff16905087565b6000600360008481526020019081526020016000206004018054905082106116f6576040517f51eb17aa00000000000000000000000000000000000000000000000000000000815260040160405180910390fd5b60036000848152602001908152602001600020600401828154811061171e5761171d613747565b5b9060005260206000200154905092915050565b606060046000848152602001908152602001600020600201805490508210611785576040517f51eb17aa00000000000000000000000000000000000000000000000000000000815260040160405180910390fd5b6004600084815260200190815260200160002060020182815481106117ad576117ac613747565b5b9060005260206000200180546117c2906135c5565b80601f01602080910402602001604051908101604052809291908181526020018280546117ee906135c5565b801561183b5780601f106118105761010080835404028352916020019161183b565b820191906000526020600020905b81548152906001019060200180831161181e57829003601f168201915b5050505050905092915050565b60006004600083815260200190815260200160002090506000600360008360030154815260200190815260200160002090506000600181111561188e5761188d6136ba565b5b600260003373ffffffffffffffffffffffffffffffffffffffff1673ffffffffffffffffffffffffffffffffffffffff16815260200190815260200160002060070160009054906101000a900460ff1660018111156118f0576118ef6136ba565b5b14611927576040517f9e3d0d6a00000000000000000000000000000000000000000000000000000000815260040160405180910390fd5b600260003373ffffffffffffffffffffffffffffffffffffffff1673ffffffffffffffffffffffffffffffffffffffff16815260200190815260200160002060000154600360008460030154815260200190815260200160002060020154146119bc576040517f2ff3968000000000000000000000000000000000000000000000000000000000815260040160405180910390fd5b8160060160009054906101000a900460ff1615611a05576040517fa715044200000000000000000000000000000000000000000000000000000000815260040160405180910390fd5b61038481600d0154611a179190613422565b42118015611a5a575060026004811115611a3457611a336136ba565b5b81600a0160009054906101000a900460ff166004811115611a5857611a576136ba565b5b145b15611a91576040517fd7fc006600000000000000000000000000000000000000000000000000000000815260040160405180910390fd5b60005b8160050180549050811015611b65576000826005018281548110611abb57611aba613747565b5b90600052602060002001549050600060046000838152602001908152602001600020905060008160060160006101000a81548160ff0219169083151502179055503373ffffffffffffffffffffffffffffffffffffffff1681600001547fd8a95b55ebe5e0d82ea2c262f7ef63d1f3c3b8a80a6dd7ccecae8780de6204316000604051611b489190612e68565b60405180910390a350508080611b5d90613642565b915050611a94565b5060018260060160006101000a81548160ff02191690831515021790555042826008018190555080600501826000015490806001815401808255809150506001900390600052602060002001600090919091909150558160050154816006018190555081600101548160030181905550600281600a0160006101000a81548160ff02191690836004811115611bfd57611bfc6136ba565b5b02179055504281600d01819055508160050154826000015482600001547f1997761047ec86906437d2f0b5f9024485faeb2d10c8c1ca682e80b7b96abc6a84600d01548560030154604051611c5392919061300c565b60405180910390a43373ffffffffffffffffffffffffffffffffffffffff1682600001547fd8a95b55ebe5e0d82ea2c262f7ef63d1f3c3b8a80a6dd7ccecae8780de6204316001604051611ca79190612e68565b60405180910390a3505050565b6000600260003373ffffffffffffffffffffffffffffffffffffffff1673ffffffffffffffffffffffffffffffffffffffff1681526020019081526020016000209050600081600001541415611d36576040517f65ec1ccc00000000000000000000000000000000000000000000000000000000815260040160405180910390fd5b85816001019080519060200190611d4e9291906124ae565b5084816002019080519060200190611d679291906124ae565b50604051806040016040528085815260200184815250816003016000820151816000015560208201518160010155905050428160060181905550818160070160006101000a81548160ff02191690836001811115611dc857611dc76136ba565b5b02179055503373ffffffffffffffffffffffffffffffffffffffff167fc64104916f0855fe2c3a278212ecf45fafea6129b43d6aa4a0af113538f5576e8260000154888460070160009054906101000a900460ff166001811115611e2f57611e2e6136ba565b5b604051611e3e93929190613296565b60405180910390a2505050505050565b6000600260003373ffffffffffffffffffffffffffffffffffffffff1673ffffffffffffffffffffffffffffffffffffffff16815260200190815260200160002090506000816000015414611ecf576040517f02e7436900000000000000000000000000000000000000000000000000000000815260040160405180910390fd5b60006001811115611ee357611ee26136ba565b5b826001811115611ef657611ef56136ba565b5b14158015611f285750600180811115611f1257611f116136ba565b5b826001811115611f2557611f246136ba565b5b14155b15611f5f576040517fe4eed0f300000000000000000000000000000000000000000000000000000000815260040160405180910390fd5b6000604051806040016040528086815260200185815250905060056000815480929190611f8b90613642565b9190505550600060055490506040518060e00160405280828152602001898152602001888152602001838152602001428152602001428152602001856001811115611fd957611fd86136ba565b5b815250600260003373ffffffffffffffffffffffffffffffffffffffff1673ffffffffffffffffffffffffffffffffffffffff1681526020019081526020016000206000820151816000015560208201518160010190805190602001906120419291906124ae565b50604082015181600201908051906020019061205e9291906124ae565b50606082015181600301600082015181600001556020820151816001015550506080820151816005015560a0820151816006015560c08201518160070160006101000a81548160ff021916908360018111156120bd576120bc6136ba565b5b02179055509050503373ffffffffffffffffffffffffffffffffffffffff167fe5de9f050cec532d14f38bdb3fa1e8b5debc358b39c2106feb78dd53ca911698828a876001811115612112576121116136ba565b5b60405161212193929190613296565b60405180910390a25050505050505050565b600180811115612146576121456136ba565b5b600260003373ffffffffffffffffffffffffffffffffffffffff1673ffffffffffffffffffffffffffffffffffffffff16815260200190815260200160002060070160009054906101000a900460ff1660018111156121a8576121a76136ba565b5b146121df576040517f94da80a300000000000000000000000000000000000000000000000000000000815260040160405180910390fd5b600060036000848152602001908152602001600020905061038481600d01546122089190613422565b4211801561224b575060026004811115612225576122246136ba565b5b81600a0160009054906101000a900460ff166004811115612249576122486136ba565b5b145b15612282576040517fd7fc006600000000000000000000000000000000000000000000000000000000815260040160405180910390fd5b6008600081548092919061229590613642565b9190505550600060085490506000604051806101200160405280838152602001888152602001878152602001868152602001858152602001600260003373ffffffffffffffffffffffffffffffffffffffff1673ffffffffffffffffffffffffffffffffffffffff16815260200190815260200160002060000154815260200160001515815260200142815260200142815250905080600460008481526020019081526020016000206000820151816000015560208201518160010155604082015181600201908051906020019061236e929190612581565b506060820151816003015560808201518160040190805190602001906123959291906124ae565b5060a0820151816005015560c08201518160060160006101000a81548160ff02191690831515021790555060e082015181600701556101008201518160080155905050826004018160a0015190806001815401808255809150506001900390600052602060002001600090919091909150553373ffffffffffffffffffffffffffffffffffffffff16827ff43bb5dbc5ea31508ddd22f39b7cd989b20b3219f33a748bf06a539cacca549c868a898b600260003373ffffffffffffffffffffffffffffffffffffffff1673ffffffffffffffffffffffffffffffffffffffff168152602001908152602001600020600001548a60040160405161249d96959493929190612f7b565b60405180910390a350505050505050565b8280546124ba906135c5565b90600052602060002090601f0160209004810192826124dc5760008555612523565b82601f106124f557805160ff1916838001178555612523565b82800160010185558215612523579182015b82811115612522578251825591602001919060010190612507565b5b5090506125309190612642565b5090565b828054828255906000526020600020908101928215612570579160200282015b8281111561256f578251825591602001919060010190612554565b5b50905061257d9190612642565b5090565b8280548282559060005260206000209081019282156125d0579160200282015b828111156125cf5782518290805190602001906125bf9291906124ae565b50916020019190600101906125a1565b5b5090506125dd919061265f565b5090565b50805460008255906000526020600020908101906125ff919061265f565b50565b50805461260e906135c5565b6000825580601f10612620575061263f565b601f01602090049060005260206000209081019061263e9190612642565b5b50565b5b8082111561265b576000816000905550600101612643565b5090565b5b8082111561267f57600081816126769190612602565b50600101612660565b5090565b6000612696612691846132f9565b6132d4565b905080838252602082019050828560208602820111156126b9576126b86137bd565b5b60005b8581101561270757813567ffffffffffffffff8111156126df576126de6137b8565b5b8086016126ec89826127c0565b855260208501945060208401935050506001810190506126bc565b5050509392505050565b600061272461271f84613325565b6132d4565b9050828152602081018484840111156127405761273f6137c2565b5b61274b848285613583565b509392505050565b60008135905061276281613817565b92915050565b600082601f83011261277d5761277c6137b8565b5b813561278d848260208601612683565b91505092915050565b6000813590506127a58161382e565b92915050565b6000813590506127ba8161383e565b92915050565b600082601f8301126127d5576127d46137b8565b5b81356127e5848260208601612711565b91505092915050565b6000813590506127fd81613855565b92915050565b600060208284031215612819576128186137cc565b5b600061282784828501612753565b91505092915050565b60008060408385031215612847576128466137cc565b5b600061285585828601612753565b9250506020612866858286016127ee565b9150509250929050565b6000806000806080858703121561288a576128896137cc565b5b6000612898878288016127ab565b945050602085013567ffffffffffffffff8111156128b9576128b86137c7565b5b6128c587828801612768565b93505060406128d6878288016127ee565b925050606085013567ffffffffffffffff8111156128f7576128f66137c7565b5b612903878288016127c0565b91505092959194509250565b600080600080600060a0868803121561292b5761292a6137cc565b5b600086013567ffffffffffffffff811115612949576129486137c7565b5b612955888289016127c0565b955050602086013567ffffffffffffffff811115612976576129756137c7565b5b612982888289016127c0565b945050604086013567ffffffffffffffff8111156129a3576129a26137c7565b5b6129af88828901612768565b93505060606129c0888289016127ab565b92505060806129d1888289016127ab565b9150509295509295909350565b600080600080600060a086880312156129fa576129f96137cc565b5b600086013567ffffffffffffffff811115612a1857612a176137c7565b5b612a24888289016127c0565b955050602086013567ffffffffffffffff811115612a4557612a446137c7565b5b612a51888289016127c0565b9450506040612a62888289016127ab565b9350506060612a73888289016127ab565b9250506080612a8488828901612796565b9150509295509295909350565b600080600080600060a08688031215612aad57612aac6137cc565b5b600086013567ffffffffffffffff811115612acb57612aca6137c7565b5b612ad7888289016127c0565b955050602086013567ffffffffffffffff811115612af857612af76137c7565b5b612b04888289016127c0565b945050604086013567ffffffffffffffff811115612b2557612b246137c7565b5b612b31888289016127c0565b9350506060612b42888289016127ab565b9250506080612b53888289016127ab565b9150509295509295909350565b600060208284031215612b7657612b756137cc565b5b6000612b84848285016127ee565b91505092915050565b60008060408385031215612ba457612ba36137cc565b5b6000612bb2858286016127ee565b9250506020612bc3858286016127ee565b9150509250929050565b6000612bd98383612d9a565b905092915050565b6000612bed8383612e3b565b60208301905092915050565b6000612c048261338b565b612c0e81856133de565b935083602082028501612c2085613356565b8060005b85811015612c5c5784840389528151612c3d8582612bcd565b9450612c48836133b7565b925060208a01995050600181019050612c24565b50829750879550505050505092915050565b6000612c7982613396565b612c8381856133ef565b9350612c8e83613366565b8060005b83811015612cbf578151612ca68882612be1565b9750612cb1836133c4565b925050600181019050612c92565b5085935050505092915050565b6000612cd7826133a1565b612ce181856133ef565b9350612cec83613376565b8060005b83811015612d2457612d01826137a5565b612d0b8882612be1565b9750612d16836133d1565b925050600181019050612cf0565b5085935050505092915050565b612d3a816134c8565b82525050565b612d498161353b565b82525050565b612d588161354d565b82525050565b612d67816134fa565b82525050565b612d76816134fa565b82525050565b612d858161355f565b82525050565b612d9481613571565b82525050565b6000612da5826133ac565b612daf8185613400565b9350612dbf818560208601613592565b612dc8816137d1565b840191505092915050565b6000612dde826133ac565b612de88185613411565b9350612df8818560208601613592565b612e01816137d1565b840191505092915050565b604082016000820151612e226000850182612d5e565b506020820151612e356020850182612d5e565b50505050565b612e4481613524565b82525050565b612e5381613524565b82525050565b612e628161352e565b82525050565b6000602082019050612e7d6000830184612d31565b92915050565b60006020820190508181036000830152612e9d8184612dd3565b905092915050565b6000610180820190508181036000830152612ec0818f612dd3565b9050612ecf602083018e612d6d565b612edc604083018d612d6d565b8181036060830152612eee818c612bf9565b9050612efd608083018b612e59565b81810360a0830152612f0f818a612dd3565b9050612f1e60c0830189612e4a565b81810360e0830152612f308188612c6e565b9050612f40610100830187612d7c565b612f4e610120830186612d8b565b612f5c610140830185612e4a565b612f6a610160830184612e4a565b9d9c50505050505050505050505050565b600060c0820190508181036000830152612f958189612dd3565b9050612fa46020830188612d6d565b612fb16040830187612e4a565b8181036060830152612fc38186612bf9565b9050612fd26080830185612e4a565b81810360a0830152612fe48184612ccc565b9050979650505050505050565b60006020820190506130066000830184612e4a565b92915050565b60006040820190506130216000830185612e4a565b61302e6020830184612d6d565b9392505050565b60006101008201905061304b600083018b612e4a565b613058602083018a612d6d565b6130656040830189612e4a565b81810360608301526130778188612dd3565b90506130866080830187612e4a565b61309360a0830186612d31565b6130a060c0830185612e4a565b6130ad60e0830184612e4a565b9998505050505050505050565b60006080820190506130cf6000830187612e4a565b81810360208301526130e18186612dd3565b90506130f06040830185612d6d565b6130fd6060830184612d6d565b95945050505050565b600060c08201905061311b6000830188612e4a565b818103602083015261312d8187612dd3565b905081810360408301526131418186612dd3565b905081810360608301526131558185612dd3565b90506131646080830184612e0c565b9695505050505050565b600061010082019050613184600083018a612e4a565b81810360208301526131968189612dd3565b905081810360408301526131aa8188612dd3565b90506131b96060830187612e0c565b6131c660a0830186612e4a565b6131d360c0830185612e4a565b6131e060e0830184612d40565b98975050505050505050565b600061016082019050613202600083018d612e4a565b8181036020830152613214818c612dd3565b9050613223604083018b612e4a565b613230606083018a612d6d565b61323d6080830189612e4a565b81810360a083015261324f8188612dd3565b905061325e60c0830187612e4a565b61326b60e0830186612d4f565b613279610100830185612e0c565b613287610140830184612e4a565b9b9a5050505050505050505050565b60006060820190506132ab6000830186612e4a565b81810360208301526132bd8185612dd3565b90506132cc6040830184612e59565b949350505050565b60006132de6132ef565b90506132ea8282613611565b919050565b6000604051905090565b600067ffffffffffffffff82111561331457613313613776565b5b602082029050602081019050919050565b600067ffffffffffffffff8211156133405761333f613776565b5b613349826137d1565b9050602081019050919050565b6000819050602082019050919050565b6000819050602082019050919050565b60008190508160005260206000209050919050565b600081519050919050565b600081519050919050565b600081549050919050565b600081519050919050565b6000602082019050919050565b6000602082019050919050565b6000600182019050919050565b600082825260208201905092915050565b600082825260208201905092915050565b600082825260208201905092915050565b600082825260208201905092915050565b600061342d82613524565b915061343883613524565b9250827fffffffffffffffffffffffffffffffffffffffffffffffffffffffffffffffff0382111561346d5761346c61368b565b5b828201905092915050565b600061348382613524565b915061348e83613524565b9250828210156134a1576134a061368b565b5b828203905092915050565b6000819050919050565b60006134c182613504565b9050919050565b60008115159050919050565b60008190506134e2826137ef565b919050565b60008190506134f582613803565b919050565b6000819050919050565b600073ffffffffffffffffffffffffffffffffffffffff82169050919050565b6000819050919050565b600060ff82169050919050565b6000613546826134d4565b9050919050565b6000613558826134e7565b9050919050565b600061356a826134fa565b9050919050565b600061357c82613524565b9050919050565b82818337600083830152505050565b60005b838110156135b0578082015181840152602081019050613595565b838111156135bf576000848401525b50505050565b600060028204905060018216806135dd57607f821691505b602082108114156135f1576135f06136e9565b5b50919050565b600061360a613605836137e2565b6134ac565b9050919050565b61361a826137d1565b810181811067ffffffffffffffff8211171561363957613638613776565b5b80604052505050565b600061364d82613524565b91507fffffffffffffffffffffffffffffffffffffffffffffffffffffffffffffffff8214156136805761367f61368b565b5b600182019050919050565b7f4e487b7100000000000000000000000000000000000000000000000000000000600052601160045260246000fd5b7f4e487b7100000000000000000000000000000000000000000000000000000000600052602160045260246000fd5b7f4e487b7100000000000000000000000000000000000000000000000000000000600052602260045260246000fd5b7f4e487b7100000000000000000000000000000000000000000000000000000000600052603160045260246000fd5b7f4e487b7100000000000000000000000000000000000000000000000000000000600052603260045260246000fd5b7f4e487b7100000000000000000000000000000000000000000000000000000000600052604160045260246000fd5b60006137b182546135f7565b9050919050565b600080fd5b600080fd5b600080fd5b600080fd5b600080fd5b6000601f19601f8301169050919050565b60008160001c9050919050565b60028110613800576137ff6136ba565b5b50565b60058110613814576138136136ba565b5b50565b613820816134b6565b811461382b57600080fd5b50565b6002811061383b57600080fd5b50565b613847816134fa565b811461385257600080fd5b50565b61385e81613524565b811461386957600080fd5b5056fea26469706673582212202dc6dcb591b8bb6b7b18be3ec81ac2921596710a566a8b5ae2c5ef3b7866cf3c64736f6c63430008070033",
  "devdoc": {
    "kind": "dev",
    "methods": {},
    "version": 1
  },
  "userdoc": {
    "kind": "user",
    "methods": {},
    "version": 1
  },
  "storageLayout": {
    "storage": [
      {
        "astId": 144,
        "contract": "contracts/Marketplace.sol:Marketplace",
        "label": "userStores",
        "offset": 0,
        "slot": "0",
        "type": "t_mapping(t_address,t_mapping(t_uint256,t_struct(Store)137_storage))"
      },
      {
        "astId": 149,
        "contract": "contracts/Marketplace.sol:Marketplace",
        "label": "userStoreIds",
        "offset": 0,
        "slot": "1",
        "type": "t_mapping(t_address,t_array(t_uint256)dyn_storage)"
      },
      {
        "astId": 247,
        "contract": "contracts/Marketplace.sol:Marketplace",
        "label": "users",
        "offset": 0,
        "slot": "2",
        "type": "t_mapping(t_address,t_struct(User)166_storage)"
      },
      {
        "astId": 252,
        "contract": "contracts/Marketplace.sol:Marketplace",
        "label": "requests",
        "offset": 0,
        "slot": "3",
        "type": "t_mapping(t_uint256,t_struct(Request)198_storage)"
      },
      {
        "astId": 257,
        "contract": "contracts/Marketplace.sol:Marketplace",
        "label": "offers",
        "offset": 0,
        "slot": "4",
        "type": "t_mapping(t_uint256,t_struct(Offer)218_storage)"
      },
      {
        "astId": 259,
        "contract": "contracts/Marketplace.sol:Marketplace",
        "label": "_userCounter",
        "offset": 0,
        "slot": "5",
        "type": "t_uint256"
      },
      {
        "astId": 261,
        "contract": "contracts/Marketplace.sol:Marketplace",
        "label": "_storeCounter",
        "offset": 0,
        "slot": "6",
        "type": "t_uint256"
      },
      {
        "astId": 263,
        "contract": "contracts/Marketplace.sol:Marketplace",
        "label": "_requestCounter",
        "offset": 0,
        "slot": "7",
        "type": "t_uint256"
      },
      {
        "astId": 265,
        "contract": "contracts/Marketplace.sol:Marketplace",
        "label": "_offerCounter",
        "offset": 0,
        "slot": "8",
        "type": "t_uint256"
      }
    ],
    "types": {
      "t_address": {
        "encoding": "inplace",
        "label": "address",
        "numberOfBytes": "20"
      },
      "t_array(t_string_storage)dyn_storage": {
        "base": "t_string_storage",
        "encoding": "dynamic_array",
        "label": "string[]",
        "numberOfBytes": "32"
      },
      "t_array(t_uint256)dyn_storage": {
        "base": "t_uint256",
        "encoding": "dynamic_array",
        "label": "uint256[]",
        "numberOfBytes": "32"
      },
      "t_bool": {
        "encoding": "inplace",
        "label": "bool",
        "numberOfBytes": "1"
      },
      "t_enum(AccountType)114": {
        "encoding": "inplace",
        "label": "enum Marketplace.AccountType",
        "numberOfBytes": "1"
      },
      "t_enum(RequestLifecycle)120": {
        "encoding": "inplace",
        "label": "enum Marketplace.RequestLifecycle",
        "numberOfBytes": "1"
      },
      "t_int256": {
        "encoding": "inplace",
        "label": "int256",
        "numberOfBytes": "32"
      },
      "t_mapping(t_address,t_array(t_uint256)dyn_storage)": {
        "encoding": "mapping",
        "key": "t_address",
        "label": "mapping(address => uint256[])",
        "numberOfBytes": "32",
        "value": "t_array(t_uint256)dyn_storage"
      },
      "t_mapping(t_address,t_mapping(t_uint256,t_struct(Store)137_storage))": {
        "encoding": "mapping",
        "key": "t_address",
        "label": "mapping(address => mapping(uint256 => struct Marketplace.Store))",
        "numberOfBytes": "32",
        "value": "t_mapping(t_uint256,t_struct(Store)137_storage)"
      },
      "t_mapping(t_address,t_struct(User)166_storage)": {
        "encoding": "mapping",
        "key": "t_address",
        "label": "mapping(address => struct Marketplace.User)",
        "numberOfBytes": "32",
        "value": "t_struct(User)166_storage"
      },
      "t_mapping(t_uint256,t_struct(Offer)218_storage)": {
        "encoding": "mapping",
        "key": "t_uint256",
        "label": "mapping(uint256 => struct Marketplace.Offer)",
        "numberOfBytes": "32",
        "value": "t_struct(Offer)218_storage"
      },
      "t_mapping(t_uint256,t_struct(Request)198_storage)": {
        "encoding": "mapping",
        "key": "t_uint256",
        "label": "mapping(uint256 => struct Marketplace.Request)",
        "numberOfBytes": "32",
        "value": "t_struct(Request)198_storage"
      },
      "t_mapping(t_uint256,t_struct(Store)137_storage)": {
        "encoding": "mapping",
        "key": "t_uint256",
        "label": "mapping(uint256 => struct Marketplace.Store)",
        "numberOfBytes": "32",
        "value": "t_struct(Store)137_storage"
      },
      "t_string_storage": {
        "encoding": "bytes",
        "label": "string",
        "numberOfBytes": "32"
      },
      "t_struct(Location)125_storage": {
        "encoding": "inplace",
        "label": "struct Marketplace.Location",
        "members": [
          {
            "astId": 122,
            "contract": "contracts/Marketplace.sol:Marketplace",
            "label": "latitude",
            "offset": 0,
            "slot": "0",
            "type": "t_int256"
          },
          {
            "astId": 124,
            "contract": "contracts/Marketplace.sol:Marketplace",
            "label": "longitude",
            "offset": 0,
            "slot": "1",
            "type": "t_int256"
          }
        ],
        "numberOfBytes": "64"
      },
      "t_struct(Offer)218_storage": {
        "encoding": "inplace",
        "label": "struct Marketplace.Offer",
        "members": [
          {
            "astId": 200,
            "contract": "contracts/Marketplace.sol:Marketplace",
            "label": "id",
            "offset": 0,
            "slot": "0",
            "type": "t_uint256"
          },
          {
            "astId": 202,
            "contract": "contracts/Marketplace.sol:Marketplace",
            "label": "price",
            "offset": 0,
            "slot": "1",
            "type": "t_int256"
          },
          {
            "astId": 205,
            "contract": "contracts/Marketplace.sol:Marketplace",
            "label": "images",
            "offset": 0,
            "slot": "2",
            "type": "t_array(t_string_storage)dyn_storage"
          },
          {
            "astId": 207,
            "contract": "contracts/Marketplace.sol:Marketplace",
            "label": "requestId",
            "offset": 0,
            "slot": "3",
            "type": "t_uint256"
          },
          {
            "astId": 209,
            "contract": "contracts/Marketplace.sol:Marketplace",
            "label": "storeName",
            "offset": 0,
            "slot": "4",
            "type": "t_string_storage"
          },
          {
            "astId": 211,
            "contract": "contracts/Marketplace.sol:Marketplace",
            "label": "sellerId",
            "offset": 0,
            "slot": "5",
            "type": "t_uint256"
          },
          {
            "astId": 213,
            "contract": "contracts/Marketplace.sol:Marketplace",
            "label": "isAccepted",
            "offset": 0,
            "slot": "6",
            "type": "t_bool"
          },
          {
            "astId": 215,
            "contract": "contracts/Marketplace.sol:Marketplace",
            "label": "createdAt",
            "offset": 0,
            "slot": "7",
            "type": "t_uint256"
          },
          {
            "astId": 217,
            "contract": "contracts/Marketplace.sol:Marketplace",
            "label": "updatedAt",
            "offset": 0,
            "slot": "8",
            "type": "t_uint256"
          }
        ],
        "numberOfBytes": "288"
      },
      "t_struct(Request)198_storage": {
        "encoding": "inplace",
        "label": "struct Marketplace.Request",
        "members": [
          {
            "astId": 168,
            "contract": "contracts/Marketplace.sol:Marketplace",
            "label": "id",
            "offset": 0,
            "slot": "0",
            "type": "t_uint256"
          },
          {
            "astId": 170,
            "contract": "contracts/Marketplace.sol:Marketplace",
            "label": "name",
            "offset": 0,
            "slot": "1",
            "type": "t_string_storage"
          },
          {
            "astId": 172,
            "contract": "contracts/Marketplace.sol:Marketplace",
            "label": "buyerId",
            "offset": 0,
            "slot": "2",
            "type": "t_uint256"
          },
          {
            "astId": 174,
            "contract": "contracts/Marketplace.sol:Marketplace",
            "label": "sellersPriceQuote",
            "offset": 0,
            "slot": "3",
            "type": "t_int256"
          },
          {
            "astId": 177,
            "contract": "contracts/Marketplace.sol:Marketplace",
            "label": "sellerIds",
            "offset": 0,
            "slot": "4",
            "type": "t_array(t_uint256)dyn_storage"
          },
          {
            "astId": 180,
            "contract": "contracts/Marketplace.sol:Marketplace",
            "label": "offerIds",
            "offset": 0,
            "slot": "5",
            "type": "t_array(t_uint256)dyn_storage"
          },
          {
            "astId": 182,
            "contract": "contracts/Marketplace.sol:Marketplace",
            "label": "lockedSellerId",
            "offset": 0,
            "slot": "6",
            "type": "t_uint256"
          },
          {
            "astId": 184,
            "contract": "contracts/Marketplace.sol:Marketplace",
            "label": "description",
            "offset": 0,
            "slot": "7",
            "type": "t_string_storage"
          },
          {
            "astId": 187,
            "contract": "contracts/Marketplace.sol:Marketplace",
            "label": "images",
            "offset": 0,
            "slot": "8",
            "type": "t_array(t_string_storage)dyn_storage"
          },
          {
            "astId": 189,
            "contract": "contracts/Marketplace.sol:Marketplace",
            "label": "createdAt",
            "offset": 0,
            "slot": "9",
            "type": "t_uint256"
          },
          {
            "astId": 192,
            "contract": "contracts/Marketplace.sol:Marketplace",
            "label": "lifecycle",
            "offset": 0,
            "slot": "10",
            "type": "t_enum(RequestLifecycle)120"
          },
          {
            "astId": 195,
            "contract": "contracts/Marketplace.sol:Marketplace",
            "label": "location",
            "offset": 0,
            "slot": "11",
            "type": "t_struct(Location)125_storage"
          },
          {
            "astId": 197,
            "contract": "contracts/Marketplace.sol:Marketplace",
            "label": "updatedAt",
            "offset": 0,
            "slot": "13",
            "type": "t_uint256"
          }
        ],
        "numberOfBytes": "448"
      },
      "t_struct(Store)137_storage": {
        "encoding": "inplace",
        "label": "struct Marketplace.Store",
        "members": [
          {
            "astId": 127,
            "contract": "contracts/Marketplace.sol:Marketplace",
            "label": "id",
            "offset": 0,
            "slot": "0",
            "type": "t_uint256"
          },
          {
            "astId": 129,
            "contract": "contracts/Marketplace.sol:Marketplace",
            "label": "name",
            "offset": 0,
            "slot": "1",
            "type": "t_string_storage"
          },
          {
            "astId": 131,
            "contract": "contracts/Marketplace.sol:Marketplace",
            "label": "description",
            "offset": 0,
            "slot": "2",
            "type": "t_string_storage"
          },
          {
            "astId": 133,
            "contract": "contracts/Marketplace.sol:Marketplace",
            "label": "phone",
            "offset": 0,
            "slot": "3",
            "type": "t_string_storage"
          },
          {
            "astId": 136,
            "contract": "contracts/Marketplace.sol:Marketplace",
            "label": "location",
            "offset": 0,
            "slot": "4",
            "type": "t_struct(Location)125_storage"
          }
        ],
        "numberOfBytes": "192"
      },
      "t_struct(User)166_storage": {
        "encoding": "inplace",
        "label": "struct Marketplace.User",
        "members": [
          {
            "astId": 151,
            "contract": "contracts/Marketplace.sol:Marketplace",
            "label": "id",
            "offset": 0,
            "slot": "0",
            "type": "t_uint256"
          },
          {
            "astId": 153,
            "contract": "contracts/Marketplace.sol:Marketplace",
            "label": "username",
            "offset": 0,
            "slot": "1",
            "type": "t_string_storage"
          },
          {
            "astId": 155,
            "contract": "contracts/Marketplace.sol:Marketplace",
            "label": "phone",
            "offset": 0,
            "slot": "2",
            "type": "t_string_storage"
          },
          {
            "astId": 158,
            "contract": "contracts/Marketplace.sol:Marketplace",
            "label": "location",
            "offset": 0,
            "slot": "3",
            "type": "t_struct(Location)125_storage"
          },
          {
            "astId": 160,
            "contract": "contracts/Marketplace.sol:Marketplace",
            "label": "createdAt",
            "offset": 0,
            "slot": "5",
            "type": "t_uint256"
          },
          {
            "astId": 162,
            "contract": "contracts/Marketplace.sol:Marketplace",
            "label": "updatedAt",
            "offset": 0,
            "slot": "6",
            "type": "t_uint256"
          },
          {
            "astId": 165,
            "contract": "contracts/Marketplace.sol:Marketplace",
            "label": "accountType",
            "offset": 0,
            "slot": "7",
            "type": "t_enum(AccountType)114"
          }
        ],
        "numberOfBytes": "256"
      },
      "t_uint256": {
        "encoding": "inplace",
        "label": "uint256",
        "numberOfBytes": "32"
      }
    }
  }
}