{
  "address": "0xDDe3506e554e26de4fd8ec99b8D784E262265552",
  "abi": [
    {
      "inputs": [],
      "name": "Marketplace_InvalidUser",
      "type": "error"
    },
    {
      "inputs": [],
      "name": "Marketplace__IndexOutOfBounds",
      "type": "error"
    },
    {
      "inputs": [],
      "name": "Marketplace__InvalidAccountType",
      "type": "error"
    },
    {
      "inputs": [],
      "name": "Marketplace__OfferAlreadyAccepted",
      "type": "error"
    },
    {
      "inputs": [],
      "name": "Marketplace__OfferAlreadyExists",
      "type": "error"
    },
    {
      "inputs": [],
      "name": "Marketplace__OfferNotRemovable",
      "type": "error"
    },
    {
      "inputs": [],
      "name": "Marketplace__OnlyBuyersAllowed",
      "type": "error"
    },
    {
      "inputs": [],
      "name": "Marketplace__OnlySellersAllowed",
      "type": "error"
    },
    {
      "inputs": [],
      "name": "Marketplace__RequestLocked",
      "type": "error"
    },
    {
      "inputs": [],
      "name": "Marketplace__UnauthorizedBuyer",
      "type": "error"
    },
    {
      "inputs": [],
      "name": "Marketplace__UnauthorizedRemoval",
      "type": "error"
    },
    {
      "anonymous": false,
      "inputs": [
        {
          "indexed": true,
          "internalType": "uint256",
          "name": "offerId",
          "type": "uint256"
        },
        {
          "indexed": true,
          "internalType": "address",
          "name": "buyerAddress",
          "type": "address"
        },
        {
          "indexed": false,
          "internalType": "bool",
          "name": "isAccepted",
          "type": "bool"
        }
      ],
      "name": "OfferAccepted",
      "type": "event"
    },
    {
      "anonymous": false,
      "inputs": [
        {
          "indexed": true,
          "internalType": "uint256",
          "name": "offerId",
          "type": "uint256"
        },
        {
          "indexed": true,
          "internalType": "address",
          "name": "sellerAddress",
          "type": "address"
        },
        {
          "indexed": false,
          "internalType": "string",
          "name": "storeName",
          "type": "string"
        },
        {
          "indexed": false,
          "internalType": "int256",
          "name": "price",
          "type": "int256"
        },
        {
          "indexed": false,
          "internalType": "uint256",
          "name": "requestId",
          "type": "uint256"
        },
        {
          "indexed": false,
          "internalType": "string[]",
          "name": "images",
          "type": "string[]"
        },
        {
          "indexed": false,
          "internalType": "uint256",
          "name": "sellerId",
          "type": "uint256"
        },
        {
          "indexed": false,
          "internalType": "uint256[]",
          "name": "sellerIds",
          "type": "uint256[]"
        }
      ],
      "name": "OfferCreated",
      "type": "event"
    },
    {
      "anonymous": false,
      "inputs": [
        {
          "indexed": true,
          "internalType": "uint256",
          "name": "offerId",
          "type": "uint256"
        },
        {
          "indexed": true,
          "internalType": "address",
          "name": "sellerAddress",
          "type": "address"
        }
      ],
      "name": "OfferRemoved",
      "type": "event"
    },
    {
      "anonymous": false,
      "inputs": [
        {
          "indexed": true,
          "internalType": "uint256",
          "name": "requestId",
          "type": "uint256"
        },
        {
          "indexed": true,
          "internalType": "uint256",
          "name": "offerId",
          "type": "uint256"
        },
        {
          "indexed": true,
          "internalType": "uint256",
          "name": "sellerId",
          "type": "uint256"
        },
        {
          "indexed": false,
          "internalType": "uint256",
          "name": "updatedAt",
          "type": "uint256"
        },
        {
          "indexed": false,
          "internalType": "int256",
          "name": "sellersPriceQuote",
          "type": "int256"
        }
      ],
      "name": "RequestAccepted",
      "type": "event"
    },
    {
      "anonymous": false,
      "inputs": [
        {
          "indexed": true,
          "internalType": "uint256",
          "name": "requestId",
          "type": "uint256"
        },
        {
          "indexed": true,
          "internalType": "address",
          "name": "buyerAddress",
          "type": "address"
        },
        {
          "indexed": false,
          "internalType": "string",
          "name": "requestName",
          "type": "string"
        },
        {
          "indexed": false,
          "internalType": "int256",
          "name": "latitude",
          "type": "int256"
        },
        {
          "indexed": false,
          "internalType": "int256",
          "name": "longitude",
          "type": "int256"
        },
        {
          "indexed": false,
          "internalType": "string[]",
          "name": "images",
          "type": "string[]"
        },
        {
          "indexed": false,
          "internalType": "uint8",
          "name": "lifecycle",
          "type": "uint8"
        },
        {
          "indexed": false,
          "internalType": "string",
          "name": "description",
          "type": "string"
        },
        {
          "indexed": false,
          "internalType": "uint256",
          "name": "buyerId",
          "type": "uint256"
        },
        {
          "indexed": false,
          "internalType": "uint256[]",
          "name": "sellerIds",
          "type": "uint256[]"
        },
        {
          "indexed": false,
          "internalType": "int256",
          "name": "sellersPriceQuote",
          "type": "int256"
        },
        {
          "indexed": false,
          "internalType": "uint256",
          "name": "lockedSellerId",
          "type": "uint256"
        },
        {
          "indexed": false,
          "internalType": "uint256",
          "name": "createdAt",
          "type": "uint256"
        },
        {
          "indexed": false,
          "internalType": "uint256",
          "name": "updatedAt",
          "type": "uint256"
        }
      ],
      "name": "RequestCreated",
      "type": "event"
    },
    {
      "anonymous": false,
      "inputs": [
        {
          "indexed": true,
          "internalType": "address",
          "name": "sellerAddress",
          "type": "address"
        },
        {
          "indexed": false,
          "internalType": "uint256",
          "name": "storeId",
          "type": "uint256"
        },
        {
          "indexed": false,
          "internalType": "string",
          "name": "storeName",
          "type": "string"
        },
        {
          "indexed": false,
          "internalType": "int256",
          "name": "latitude",
          "type": "int256"
        },
        {
          "indexed": false,
          "internalType": "int256",
          "name": "longitude",
          "type": "int256"
        }
      ],
      "name": "StoreCreated",
      "type": "event"
    },
    {
      "anonymous": false,
      "inputs": [
        {
          "indexed": true,
          "internalType": "address",
          "name": "userAddress",
          "type": "address"
        },
        {
          "indexed": false,
          "internalType": "uint256",
          "name": "userId",
          "type": "uint256"
        },
        {
          "indexed": false,
          "internalType": "string",
          "name": "username",
          "type": "string"
        },
        {
          "indexed": false,
          "internalType": "uint8",
          "name": "accountType",
          "type": "uint8"
        }
      ],
      "name": "UserCreated",
      "type": "event"
    },
    {
      "anonymous": false,
      "inputs": [
        {
          "indexed": true,
          "internalType": "address",
          "name": "userAddress",
          "type": "address"
        },
        {
          "indexed": false,
          "internalType": "uint256",
          "name": "userId",
          "type": "uint256"
        },
        {
          "indexed": false,
          "internalType": "string",
          "name": "username",
          "type": "string"
        },
        {
          "indexed": false,
          "internalType": "uint8",
          "name": "accountType",
          "type": "uint8"
        }
      ],
      "name": "UserUpdated",
      "type": "event"
    },
    {
      "inputs": [
        {
          "internalType": "uint256",
          "name": "_offerId",
          "type": "uint256"
        }
      ],
      "name": "acceptOffer",
      "outputs": [],
      "stateMutability": "nonpayable",
      "type": "function"
    },
    {
      "inputs": [
        {
          "internalType": "int256",
          "name": "_price",
          "type": "int256"
        },
        {
          "internalType": "string[]",
          "name": "_images",
          "type": "string[]"
        },
        {
          "internalType": "uint256",
          "name": "_requestId",
          "type": "uint256"
        },
        {
          "internalType": "string",
          "name": "_storeName",
          "type": "string"
        }
      ],
      "name": "createOffer",
      "outputs": [],
      "stateMutability": "nonpayable",
      "type": "function"
    },
    {
      "inputs": [
        {
          "internalType": "string",
          "name": "_name",
          "type": "string"
        },
        {
          "internalType": "string",
          "name": "_description",
          "type": "string"
        },
        {
          "internalType": "string[]",
          "name": "_images",
          "type": "string[]"
        },
        {
          "internalType": "int256",
          "name": "_latitude",
          "type": "int256"
        },
        {
          "internalType": "int256",
          "name": "_longitude",
          "type": "int256"
        }
      ],
      "name": "createRequest",
      "outputs": [],
      "stateMutability": "nonpayable",
      "type": "function"
    },
    {
      "inputs": [
        {
          "internalType": "string",
          "name": "_name",
          "type": "string"
        },
        {
          "internalType": "string",
          "name": "_description",
          "type": "string"
        },
        {
          "internalType": "string",
          "name": "_phone",
          "type": "string"
        },
        {
          "internalType": "int256",
          "name": "_latitude",
          "type": "int256"
        },
        {
          "internalType": "int256",
          "name": "_longitude",
          "type": "int256"
        }
      ],
      "name": "createStore",
      "outputs": [],
      "stateMutability": "nonpayable",
      "type": "function"
    },
    {
      "inputs": [
        {
          "internalType": "string",
          "name": "_username",
          "type": "string"
        },
        {
          "internalType": "string",
          "name": "_phone",
          "type": "string"
        },
        {
          "internalType": "int256",
          "name": "_latitude",
          "type": "int256"
        },
        {
          "internalType": "int256",
          "name": "_longitude",
          "type": "int256"
        },
        {
          "internalType": "enum Marketplace.AccountType",
          "name": "_accountType",
          "type": "uint8"
        }
      ],
      "name": "createUser",
      "outputs": [],
      "stateMutability": "nonpayable",
      "type": "function"
    },
    {
      "inputs": [
        {
          "internalType": "uint256",
          "name": "offerId",
          "type": "uint256"
        },
        {
          "internalType": "uint256",
          "name": "index",
          "type": "uint256"
        }
      ],
      "name": "getOfferImageByIndex",
      "outputs": [
        {
          "internalType": "string",
          "name": "",
          "type": "string"
        }
      ],
      "stateMutability": "view",
      "type": "function"
    },
    {
      "inputs": [
        {
          "internalType": "uint256",
          "name": "offerId",
          "type": "uint256"
        }
      ],
      "name": "getOfferImagesLength",
      "outputs": [
        {
          "internalType": "uint256",
          "name": "",
          "type": "uint256"
        }
      ],
      "stateMutability": "view",
      "type": "function"
    },
    {
      "inputs": [
        {
          "internalType": "uint256",
          "name": "requestId",
          "type": "uint256"
        },
        {
          "internalType": "uint256",
          "name": "index",
          "type": "uint256"
        }
      ],
      "name": "getRequestImageByIndex",
      "outputs": [
        {
          "internalType": "string",
          "name": "",
          "type": "string"
        }
      ],
      "stateMutability": "view",
      "type": "function"
    },
    {
      "inputs": [
        {
          "internalType": "uint256",
          "name": "requestId",
          "type": "uint256"
        }
      ],
      "name": "getRequestImagesLength",
      "outputs": [
        {
          "internalType": "uint256",
          "name": "",
          "type": "uint256"
        }
      ],
      "stateMutability": "view",
      "type": "function"
    },
    {
      "inputs": [
        {
          "internalType": "uint256",
          "name": "requestId",
          "type": "uint256"
        },
        {
          "internalType": "uint256",
          "name": "index",
          "type": "uint256"
        }
      ],
      "name": "getRequestSellerIdByIndex",
      "outputs": [
        {
          "internalType": "uint256",
          "name": "",
          "type": "uint256"
        }
      ],
      "stateMutability": "view",
      "type": "function"
    },
    {
      "inputs": [
        {
          "internalType": "uint256",
          "name": "requestId",
          "type": "uint256"
        }
      ],
      "name": "getRequestSellerIdsLength",
      "outputs": [
        {
          "internalType": "uint256",
          "name": "",
          "type": "uint256"
        }
      ],
      "stateMutability": "view",
      "type": "function"
    },
    {
      "inputs": [
        {
          "internalType": "uint256",
          "name": "",
          "type": "uint256"
        }
      ],
      "name": "offers",
      "outputs": [
        {
          "internalType": "uint256",
          "name": "id",
          "type": "uint256"
        },
        {
          "internalType": "int256",
          "name": "price",
          "type": "int256"
        },
        {
          "internalType": "uint256",
          "name": "requestId",
          "type": "uint256"
        },
        {
          "internalType": "string",
          "name": "storeName",
          "type": "string"
        },
        {
          "internalType": "uint256",
          "name": "sellerId",
          "type": "uint256"
        },
        {
          "internalType": "bool",
          "name": "isAccepted",
          "type": "bool"
        },
        {
          "internalType": "uint256",
          "name": "createdAt",
          "type": "uint256"
        },
        {
          "internalType": "uint256",
          "name": "updatedAt",
          "type": "uint256"
        }
      ],
      "stateMutability": "view",
      "type": "function"
    },
    {
      "inputs": [
        {
          "internalType": "uint256",
          "name": "_offerId",
          "type": "uint256"
        }
      ],
      "name": "removeOffer",
      "outputs": [],
      "stateMutability": "nonpayable",
      "type": "function"
    },
    {
      "inputs": [
        {
          "internalType": "uint256",
          "name": "",
          "type": "uint256"
        }
      ],
      "name": "requests",
      "outputs": [
        {
          "internalType": "uint256",
          "name": "id",
          "type": "uint256"
        },
        {
          "internalType": "string",
          "name": "name",
          "type": "string"
        },
        {
          "internalType": "uint256",
          "name": "buyerId",
          "type": "uint256"
        },
        {
          "internalType": "int256",
          "name": "sellersPriceQuote",
          "type": "int256"
        },
        {
          "internalType": "uint256",
          "name": "lockedSellerId",
          "type": "uint256"
        },
        {
          "internalType": "string",
          "name": "description",
          "type": "string"
        },
        {
          "internalType": "uint256",
          "name": "createdAt",
          "type": "uint256"
        },
        {
          "internalType": "enum Marketplace.RequestLifecycle",
          "name": "lifecycle",
          "type": "uint8"
        },
        {
          "components": [
            {
              "internalType": "int256",
              "name": "latitude",
              "type": "int256"
            },
            {
              "internalType": "int256",
              "name": "longitude",
              "type": "int256"
            }
          ],
          "internalType": "struct Marketplace.Location",
          "name": "location",
          "type": "tuple"
        },
        {
          "internalType": "uint256",
          "name": "updatedAt",
          "type": "uint256"
        }
      ],
      "stateMutability": "view",
      "type": "function"
    },
    {
      "inputs": [
        {
          "internalType": "string",
          "name": "_username",
          "type": "string"
        },
        {
          "internalType": "string",
          "name": "_phone",
          "type": "string"
        },
        {
          "internalType": "int256",
          "name": "_latitude",
          "type": "int256"
        },
        {
          "internalType": "int256",
          "name": "_longitude",
          "type": "int256"
        },
        {
          "internalType": "enum Marketplace.AccountType",
          "name": "_accountType",
          "type": "uint8"
        }
      ],
      "name": "updateUser",
      "outputs": [],
      "stateMutability": "nonpayable",
      "type": "function"
    },
    {
      "inputs": [
        {
          "internalType": "address",
          "name": "user",
          "type": "address"
        }
      ],
      "name": "userStoreCount",
      "outputs": [
        {
          "internalType": "uint256",
          "name": "",
          "type": "uint256"
        }
      ],
      "stateMutability": "view",
      "type": "function"
    },
    {
      "inputs": [
        {
          "internalType": "address",
          "name": "",
          "type": "address"
        },
        {
          "internalType": "uint256",
          "name": "",
          "type": "uint256"
        }
      ],
      "name": "userStoreIds",
      "outputs": [
        {
          "internalType": "uint256",
          "name": "",
          "type": "uint256"
        }
      ],
      "stateMutability": "view",
      "type": "function"
    },
    {
      "inputs": [
        {
          "internalType": "address",
          "name": "",
          "type": "address"
        },
        {
          "internalType": "uint256",
          "name": "",
          "type": "uint256"
        }
      ],
      "name": "userStores",
      "outputs": [
        {
          "internalType": "uint256",
          "name": "id",
          "type": "uint256"
        },
        {
          "internalType": "string",
          "name": "name",
          "type": "string"
        },
        {
          "internalType": "string",
          "name": "description",
          "type": "string"
        },
        {
          "internalType": "string",
          "name": "phone",
          "type": "string"
        },
        {
          "components": [
            {
              "internalType": "int256",
              "name": "latitude",
              "type": "int256"
            },
            {
              "internalType": "int256",
              "name": "longitude",
              "type": "int256"
            }
          ],
          "internalType": "struct Marketplace.Location",
          "name": "location",
          "type": "tuple"
        }
      ],
      "stateMutability": "view",
      "type": "function"
    },
    {
      "inputs": [
        {
          "internalType": "address",
          "name": "",
          "type": "address"
        }
      ],
      "name": "users",
      "outputs": [
        {
          "internalType": "uint256",
          "name": "id",
          "type": "uint256"
        },
        {
          "internalType": "string",
          "name": "username",
          "type": "string"
        },
        {
          "internalType": "string",
          "name": "phone",
          "type": "string"
        },
        {
          "components": [
            {
              "internalType": "int256",
              "name": "latitude",
              "type": "int256"
            },
            {
              "internalType": "int256",
              "name": "longitude",
              "type": "int256"
            }
          ],
          "internalType": "struct Marketplace.Location",
          "name": "location",
          "type": "tuple"
        },
        {
          "internalType": "uint256",
          "name": "createdAt",
          "type": "uint256"
        },
        {
          "internalType": "uint256",
          "name": "updatedAt",
          "type": "uint256"
        },
        {
          "internalType": "enum Marketplace.AccountType",
          "name": "accountType",
          "type": "uint8"
        }
      ],
      "stateMutability": "view",
      "type": "function"
    }
  ],
  "transactionHash": "0xb569b84ed6ce1620870e8315b696830658db571cb3850825505b1565323db8b1",
  "args": [],
  "numDeployments": 1,
  "solcInputHash": "b445397713a7acef29126252d026acaa",
  "bytecode": "0x608060405234801561001057600080fd5b50613820806100206000396000f3fe608060405234801561001057600080fd5b50600436106101215760003560e01c80638a72ea6a116100ad578063c538d2eb11610071578063c538d2eb146103a4578063c815729d146103d4578063d82926dc146103f0578063d9cca5091461040c578063ea21e2c41461042857610121565b80638a72ea6a146102bb57806392ea2c57146102f257806395a0f9c714610322578063a87430ba1461033e578063b277d5901461037457610121565b8063340dbe5f116100f4578063340dbe5f146101be5780633c0e7edb146101ee5780633fd4fe1a1461021e57806381d12c581461024e578063858bb8c01461028757610121565b806309ce2724146101265780631058dcd61461014257806316865afa1461015e57806317d672e81461018e575b600080fd5b610140600480360381019061013b919061288d565b610444565b005b61015c60048036038101906101579190612a0f565b6108b4565b005b61017860048036038101906101739190612781565b610b5a565b6040516101859190612f6f565b60405180910390f35b6101a860048036038101906101a39190612ade565b610ba6565b6040516101b59190612f6f565b60405180910390f35b6101d860048036038101906101d39190612b0b565b610bc9565b6040516101e59190612e01565b60405180910390f35b610208600480360381019061020391906127ae565b610ce0565b6040516102159190612f6f565b60405180910390f35b61023860048036038101906102339190612ade565b610d11565b6040516102459190612f6f565b60405180910390f35b61026860048036038101906102639190612ade565b610d34565b60405161027e9a9998979695949392919061316a565b60405180910390f35b6102a1600480360381019061029c91906127ae565b610ec3565b6040516102b2959493929190613084565b60405180910390f35b6102d560048036038101906102d09190612ade565b6110bc565b6040516102e9989796959493929190612fb3565b60405180910390f35b61030c60048036038101906103079190612ade565b611199565b6040516103199190612f6f565b60405180910390f35b61033c60048036038101906103379190612ade565b6111bc565b005b61035860048036038101906103539190612781565b611525565b60405161036b97969594939291906130ec565b60405180910390f35b61038e60048036038101906103899190612b0b565b6116a2565b60405161039b9190612f6f565b60405180910390f35b6103be60048036038101906103b99190612b0b565b611731565b6040516103cb9190612e01565b60405180910390f35b6103ee60048036038101906103e99190612ade565b611848565b005b61040a6004803603810190610405919061295c565b611cb4565b005b6104266004803603810190610421919061295c565b611e4e565b005b610442600480360381019061043d91906127ee565b6120b1565b005b6000600181111561045857610457613638565b5b600260003373ffffffffffffffffffffffffffffffffffffffff1673ffffffffffffffffffffffffffffffffffffffff16815260200190815260200160002060070160009054906101000a900460ff1660018111156104ba576104b9613638565b5b146104f1576040517f9e3d0d6a00000000000000000000000000000000000000000000000000000000815260040160405180910390fd5b600060405180604001604052808481526020018381525090506007600081548092919061051d906135c0565b9190505550600060075490506000604051806101a00160405280838152602001898152602001600260003373ffffffffffffffffffffffffffffffffffffffff1673ffffffffffffffffffffffffffffffffffffffff16815260200190815260200160002060000154815260200160008152602001600067ffffffffffffffff8111156105ad576105ac6136f4565b5b6040519080825280602002602001820160405280156105db5781602001602082028036833780820191505090505b508152602001600067ffffffffffffffff8111156105fc576105fb6136f4565b5b60405190808252806020026020018201604052801561062a5781602001602082028036833780820191505090505b508152602001600081526020018881526020018781526020014281526020016000600481111561065d5761065c613638565b5b815260200184815260200142815250905080600360008481526020019081526020016000206000820151816000015560208201518160010190805190602001906106a892919061242c565b50604082015181600201556060820151816003015560808201518160040190805190602001906106d99291906124b2565b5060a08201518160050190805190602001906106f69291906124b2565b5060c0820151816006015560e082015181600701908051906020019061071d92919061242c565b5061010082015181600801908051906020019061073b9291906124ff565b50610120820151816009015561014082015181600a0160006101000a81548160ff0219169083600481111561077357610772613638565b5b021790555061016082015181600b016000820151816000015560208201518160010155505061018082015181600d01559050503373ffffffffffffffffffffffffffffffffffffffff16827f56ca0afdd5f54238e27cf178a4bd73abd99ea55a21defd28381b76d0761993ae8a88888b600060048111156107f7576107f6613638565b5b8e600260003373ffffffffffffffffffffffffffffffffffffffff1673ffffffffffffffffffffffffffffffffffffffff16815260200190815260200160002060000154600067ffffffffffffffff811115610856576108556136f4565b5b6040519080825280602002602001820160405280156108845781602001602082028036833780820191505090505b5060008042426040516108a29c9b9a99989796959493929190612e23565b60405180910390a35050505050505050565b6001808111156108c7576108c6613638565b5b600260003373ffffffffffffffffffffffffffffffffffffffff1673ffffffffffffffffffffffffffffffffffffffff16815260200190815260200160002060070160009054906101000a900460ff16600181111561092957610928613638565b5b14610960576040517f94da80a300000000000000000000000000000000000000000000000000000000815260040160405180910390fd5b600060405180604001604052808481526020018381525090506006600081548092919061098c906135c0565b91905055506000600654905060006040518060a00160405280838152602001898152602001888152602001878152602001848152509050806000803373ffffffffffffffffffffffffffffffffffffffff1673ffffffffffffffffffffffffffffffffffffffff1681526020019081526020016000206000848152602001908152602001600020600082015181600001556020820151816001019080519060200190610a3992919061242c565b506040820151816002019080519060200190610a5692919061242c565b506060820151816003019080519060200190610a7392919061242c565b5060808201518160040160008201518160000155602082015181600101555050905050600160003373ffffffffffffffffffffffffffffffffffffffff1673ffffffffffffffffffffffffffffffffffffffff1681526020019081526020016000208290806001815401808255809150506001900390600052602060002001600090919091909150553373ffffffffffffffffffffffffffffffffffffffff167fd9d5542da55e90f155387919b65ef4f3e32cbc5858ca7850b1e2896b9239359c838a8888604051610b489493929190613038565b60405180910390a25050505050505050565b6000600160008373ffffffffffffffffffffffffffffffffffffffff1673ffffffffffffffffffffffffffffffffffffffff168152602001908152602001600020805490509050919050565b600060046000838152602001908152602001600020600201805490509050919050565b606060036000848152602001908152602001600020600801805490508210610c1d576040517f51eb17aa00000000000000000000000000000000000000000000000000000000815260040160405180910390fd5b600360008481526020019081526020016000206008018281548110610c4557610c446136c5565b5b906000526020600020018054610c5a90613543565b80601f0160208091040260200160405190810160405280929190818152602001828054610c8690613543565b8015610cd35780601f10610ca857610100808354040283529160200191610cd3565b820191906000526020600020905b815481529060010190602001808311610cb657829003601f168201915b5050505050905092915050565b60016020528160005260406000208181548110610cfc57600080fd5b90600052602060002001600091509150505481565b600060036000838152602001908152602001600020600801805490509050919050565b6003602052806000526040600020600091509050806000015490806001018054610d5d90613543565b80601f0160208091040260200160405190810160405280929190818152602001828054610d8990613543565b8015610dd65780601f10610dab57610100808354040283529160200191610dd6565b820191906000526020600020905b815481529060010190602001808311610db957829003601f168201915b505050505090806002015490806003015490806006015490806007018054610dfd90613543565b80601f0160208091040260200160405190810160405280929190818152602001828054610e2990613543565b8015610e765780601f10610e4b57610100808354040283529160200191610e76565b820191906000526020600020905b815481529060010190602001808311610e5957829003601f168201915b50505050509080600901549080600a0160009054906101000a900460ff169080600b01604051806040016040529081600082015481526020016001820154815250509080600d015490508a565b600060205281600052604060002060205280600052604060002060009150915050806000015490806001018054610ef990613543565b80601f0160208091040260200160405190810160405280929190818152602001828054610f2590613543565b8015610f725780601f10610f4757610100808354040283529160200191610f72565b820191906000526020600020905b815481529060010190602001808311610f5557829003601f168201915b505050505090806002018054610f8790613543565b80601f0160208091040260200160405190810160405280929190818152602001828054610fb390613543565b80156110005780601f10610fd557610100808354040283529160200191611000565b820191906000526020600020905b815481529060010190602001808311610fe357829003601f168201915b50505050509080600301805461101590613543565b80601f016020809104026020016040519081016040528092919081815260200182805461104190613543565b801561108e5780601f106110635761010080835404028352916020019161108e565b820191906000526020600020905b81548152906001019060200180831161107157829003601f168201915b5050505050908060040160405180604001604052908160008201548152602001600182015481525050905085565b60046020528060005260406000206000915090508060000154908060010154908060030154908060040180546110f190613543565b80601f016020809104026020016040519081016040528092919081815260200182805461111d90613543565b801561116a5780601f1061113f5761010080835404028352916020019161116a565b820191906000526020600020905b81548152906001019060200180831161114d57829003601f168201915b5050505050908060050154908060060160009054906101000a900460ff16908060070154908060080154905088565b600060036000838152602001908152602001600020600401805490509050919050565b6000600460008381526020019081526020016000209050600060036000836003015481526020019081526020016000209050600260003373ffffffffffffffffffffffffffffffffffffffff1673ffffffffffffffffffffffffffffffffffffffff1681526020019081526020016000206000015482600501541461126d576040517f4dd746a000000000000000000000000000000000000000000000000000000000815260040160405180910390fd5b610384826008015461127f91906133a0565b4211156112b8576040517fbca0995e00000000000000000000000000000000000000000000000000000000815260040160405180910390fd5b61038481600d01546112ca91906133a0565b4211801561130d5750600260048111156112e7576112e6613638565b5b81600a0160009054906101000a900460ff16600481111561130b5761130a613638565b5b145b15611344576040517fd7fc006600000000000000000000000000000000000000000000000000000000815260040160405180910390fd5b6000806000905060005b83600401805490508110156113a8578460050154846004018281548110611378576113776136c5565b5b9060005260206000200154141561139557809250600191506113a8565b80806113a0906135c0565b91505061134e565b5080156114605760008290505b600184600401805490506113c991906133f6565b81101561143457836004016001826113e191906133a0565b815481106113f2576113f16136c5565b5b9060005260206000200154846004018281548110611413576114126136c5565b5b9060005260206000200181905550808061142c906135c0565b9150506113b5565b508260040180548061144957611448613696565b5b600190038181906000526020600020016000905590555b600460008681526020019081526020016000206000808201600090556001820160009055600282016000611494919061255f565b60038201600090556004820160006114ac9190612580565b60058201600090556006820160006101000a81549060ff02191690556007820160009055600882016000905550503373ffffffffffffffffffffffffffffffffffffffff16857f2e8af6a053bc85443cdcc0eb4bc27edb2a41dd5d1605e76bbd7f687f3f4adc6a60405160405180910390a35050505050565b600260205280600052604060002060009150905080600001549080600101805461154e90613543565b80601f016020809104026020016040519081016040528092919081815260200182805461157a90613543565b80156115c75780601f1061159c576101008083540402835291602001916115c7565b820191906000526020600020905b8154815290600101906020018083116115aa57829003601f168201915b5050505050908060020180546115dc90613543565b80601f016020809104026020016040519081016040528092919081815260200182805461160890613543565b80156116555780601f1061162a57610100808354040283529160200191611655565b820191906000526020600020905b81548152906001019060200180831161163857829003601f168201915b5050505050908060030160405180604001604052908160008201548152602001600182015481525050908060050154908060060154908060070160009054906101000a900460ff16905087565b6000600360008481526020019081526020016000206004018054905082106116f6576040517f51eb17aa00000000000000000000000000000000000000000000000000000000815260040160405180910390fd5b60036000848152602001908152602001600020600401828154811061171e5761171d6136c5565b5b9060005260206000200154905092915050565b606060046000848152602001908152602001600020600201805490508210611785576040517f51eb17aa00000000000000000000000000000000000000000000000000000000815260040160405180910390fd5b6004600084815260200190815260200160002060020182815481106117ad576117ac6136c5565b5b9060005260206000200180546117c290613543565b80601f01602080910402602001604051908101604052809291908181526020018280546117ee90613543565b801561183b5780601f106118105761010080835404028352916020019161183b565b820191906000526020600020905b81548152906001019060200180831161181e57829003601f168201915b5050505050905092915050565b60006004600083815260200190815260200160002090506000600360008360030154815260200190815260200160002090506000600181111561188e5761188d613638565b5b600260003373ffffffffffffffffffffffffffffffffffffffff1673ffffffffffffffffffffffffffffffffffffffff16815260200190815260200160002060070160009054906101000a900460ff1660018111156118f0576118ef613638565b5b14611927576040517f9e3d0d6a00000000000000000000000000000000000000000000000000000000815260040160405180910390fd5b600260003373ffffffffffffffffffffffffffffffffffffffff1673ffffffffffffffffffffffffffffffffffffffff16815260200190815260200160002060000154600360008460030154815260200190815260200160002060020154146119bc576040517f2ff3968000000000000000000000000000000000000000000000000000000000815260040160405180910390fd5b8160060160009054906101000a900460ff1615611a05576040517fa715044200000000000000000000000000000000000000000000000000000000815260040160405180910390fd5b61038481600d0154611a1791906133a0565b42118015611a5a575060026004811115611a3457611a33613638565b5b81600a0160009054906101000a900460ff166004811115611a5857611a57613638565b5b145b15611a91576040517fd7fc006600000000000000000000000000000000000000000000000000000000815260040160405180910390fd5b60005b8160050180549050811015611b65576000826005018281548110611abb57611aba6136c5565b5b90600052602060002001549050600060046000838152602001908152602001600020905060008160060160006101000a81548160ff0219169083151502179055503373ffffffffffffffffffffffffffffffffffffffff1681600001547fd8a95b55ebe5e0d82ea2c262f7ef63d1f3c3b8a80a6dd7ccecae8780de6204316000604051611b489190612de6565b60405180910390a350508080611b5d906135c0565b915050611a94565b5060018260060160006101000a81548160ff02191690831515021790555042826008018190555080600501826000015490806001815401808255809150506001900390600052602060002001600090919091909150558160050154816006018190555081600101548160030181905550600281600a0160006101000a81548160ff02191690836004811115611bfd57611bfc613638565b5b02179055504281600d01819055508160050154826000015482600001547f1997761047ec86906437d2f0b5f9024485faeb2d10c8c1ca682e80b7b96abc6a84600d01548560030154604051611c53929190612f8a565b60405180910390a43373ffffffffffffffffffffffffffffffffffffffff1682600001547fd8a95b55ebe5e0d82ea2c262f7ef63d1f3c3b8a80a6dd7ccecae8780de6204316001604051611ca79190612de6565b60405180910390a3505050565b6000600260003373ffffffffffffffffffffffffffffffffffffffff1673ffffffffffffffffffffffffffffffffffffffff1681526020019081526020016000209050600081600001541415611d36576040517f65ec1ccc00000000000000000000000000000000000000000000000000000000815260040160405180910390fd5b85816001019080519060200190611d4e92919061242c565b5084816002019080519060200190611d6792919061242c565b50604051806040016040528085815260200184815250816003016000820151816000015560208201518160010155905050428160060181905550818160070160006101000a81548160ff02191690836001811115611dc857611dc7613638565b5b02179055503373ffffffffffffffffffffffffffffffffffffffff167fc64104916f0855fe2c3a278212ecf45fafea6129b43d6aa4a0af113538f5576e8260000154888460070160009054906101000a900460ff166001811115611e2f57611e2e613638565b5b604051611e3e93929190613214565b60405180910390a2505050505050565b60006001811115611e6257611e61613638565b5b816001811115611e7557611e74613638565b5b14158015611ea75750600180811115611e9157611e90613638565b5b816001811115611ea457611ea3613638565b5b14155b15611ede576040517fe4eed0f300000000000000000000000000000000000000000000000000000000815260040160405180910390fd5b6000604051806040016040528085815260200184815250905060056000815480929190611f0a906135c0565b9190505550600060055490506040518060e00160405280828152602001888152602001878152602001838152602001428152602001428152602001846001811115611f5857611f57613638565b5b815250600260003373ffffffffffffffffffffffffffffffffffffffff1673ffffffffffffffffffffffffffffffffffffffff168152602001908152602001600020600082015181600001556020820151816001019080519060200190611fc092919061242c565b506040820151816002019080519060200190611fdd92919061242c565b50606082015181600301600082015181600001556020820151816001015550506080820151816005015560a0820151816006015560c08201518160070160006101000a81548160ff0219169083600181111561203c5761203b613638565b5b02179055509050503373ffffffffffffffffffffffffffffffffffffffff167fe5de9f050cec532d14f38bdb3fa1e8b5debc358b39c2106feb78dd53ca911698828986600181111561209157612090613638565b5b6040516120a093929190613214565b60405180910390a250505050505050565b6001808111156120c4576120c3613638565b5b600260003373ffffffffffffffffffffffffffffffffffffffff1673ffffffffffffffffffffffffffffffffffffffff16815260200190815260200160002060070160009054906101000a900460ff16600181111561212657612125613638565b5b1461215d576040517f94da80a300000000000000000000000000000000000000000000000000000000815260040160405180910390fd5b600060036000848152602001908152602001600020905061038481600d015461218691906133a0565b421180156121c95750600260048111156121a3576121a2613638565b5b81600a0160009054906101000a900460ff1660048111156121c7576121c6613638565b5b145b15612200576040517fd7fc006600000000000000000000000000000000000000000000000000000000815260040160405180910390fd5b60086000815480929190612213906135c0565b9190505550600060085490506000604051806101200160405280838152602001888152602001878152602001868152602001858152602001600260003373ffffffffffffffffffffffffffffffffffffffff1673ffffffffffffffffffffffffffffffffffffffff1681526020019081526020016000206000015481526020016000151581526020014281526020014281525090508060046000848152602001908152602001600020600082015181600001556020820151816001015560408201518160020190805190602001906122ec9291906124ff565b5060608201518160030155608082015181600401908051906020019061231392919061242c565b5060a0820151816005015560c08201518160060160006101000a81548160ff02191690831515021790555060e082015181600701556101008201518160080155905050826004018160a0015190806001815401808255809150506001900390600052602060002001600090919091909150553373ffffffffffffffffffffffffffffffffffffffff16827ff43bb5dbc5ea31508ddd22f39b7cd989b20b3219f33a748bf06a539cacca549c868a898b600260003373ffffffffffffffffffffffffffffffffffffffff1673ffffffffffffffffffffffffffffffffffffffff168152602001908152602001600020600001548a60040160405161241b96959493929190612ef9565b60405180910390a350505050505050565b82805461243890613543565b90600052602060002090601f01602090048101928261245a57600085556124a1565b82601f1061247357805160ff19168380011785556124a1565b828001600101855582156124a1579182015b828111156124a0578251825591602001919060010190612485565b5b5090506124ae91906125c0565b5090565b8280548282559060005260206000209081019282156124ee579160200282015b828111156124ed5782518255916020019190600101906124d2565b5b5090506124fb91906125c0565b5090565b82805482825590600052602060002090810192821561254e579160200282015b8281111561254d57825182908051906020019061253d92919061242c565b509160200191906001019061251f565b5b50905061255b91906125dd565b5090565b508054600082559060005260206000209081019061257d91906125dd565b50565b50805461258c90613543565b6000825580601f1061259e57506125bd565b601f0160209004906000526020600020908101906125bc91906125c0565b5b50565b5b808211156125d95760008160009055506001016125c1565b5090565b5b808211156125fd57600081816125f49190612580565b506001016125de565b5090565b600061261461260f84613277565b613252565b905080838252602082019050828560208602820111156126375761263661373b565b5b60005b8581101561268557813567ffffffffffffffff81111561265d5761265c613736565b5b80860161266a898261273e565b8552602085019450602084019350505060018101905061263a565b5050509392505050565b60006126a261269d846132a3565b613252565b9050828152602081018484840111156126be576126bd613740565b5b6126c9848285613501565b509392505050565b6000813590506126e081613795565b92915050565b600082601f8301126126fb576126fa613736565b5b813561270b848260208601612601565b91505092915050565b600081359050612723816137ac565b92915050565b600081359050612738816137bc565b92915050565b600082601f83011261275357612752613736565b5b813561276384826020860161268f565b91505092915050565b60008135905061277b816137d3565b92915050565b6000602082840312156127975761279661374a565b5b60006127a5848285016126d1565b91505092915050565b600080604083850312156127c5576127c461374a565b5b60006127d3858286016126d1565b92505060206127e48582860161276c565b9150509250929050565b600080600080608085870312156128085761280761374a565b5b600061281687828801612729565b945050602085013567ffffffffffffffff81111561283757612836613745565b5b612843878288016126e6565b93505060406128548782880161276c565b925050606085013567ffffffffffffffff81111561287557612874613745565b5b6128818782880161273e565b91505092959194509250565b600080600080600060a086880312156128a9576128a861374a565b5b600086013567ffffffffffffffff8111156128c7576128c6613745565b5b6128d38882890161273e565b955050602086013567ffffffffffffffff8111156128f4576128f3613745565b5b6129008882890161273e565b945050604086013567ffffffffffffffff81111561292157612920613745565b5b61292d888289016126e6565b935050606061293e88828901612729565b925050608061294f88828901612729565b9150509295509295909350565b600080600080600060a086880312156129785761297761374a565b5b600086013567ffffffffffffffff81111561299657612995613745565b5b6129a28882890161273e565b955050602086013567ffffffffffffffff8111156129c3576129c2613745565b5b6129cf8882890161273e565b94505060406129e088828901612729565b93505060606129f188828901612729565b9250506080612a0288828901612714565b9150509295509295909350565b600080600080600060a08688031215612a2b57612a2a61374a565b5b600086013567ffffffffffffffff811115612a4957612a48613745565b5b612a558882890161273e565b955050602086013567ffffffffffffffff811115612a7657612a75613745565b5b612a828882890161273e565b945050604086013567ffffffffffffffff811115612aa357612aa2613745565b5b612aaf8882890161273e565b9350506060612ac088828901612729565b9250506080612ad188828901612729565b9150509295509295909350565b600060208284031215612af457612af361374a565b5b6000612b028482850161276c565b91505092915050565b60008060408385031215612b2257612b2161374a565b5b6000612b308582860161276c565b9250506020612b418582860161276c565b9150509250929050565b6000612b578383612d18565b905092915050565b6000612b6b8383612db9565b60208301905092915050565b6000612b8282613309565b612b8c818561335c565b935083602082028501612b9e856132d4565b8060005b85811015612bda5784840389528151612bbb8582612b4b565b9450612bc683613335565b925060208a01995050600181019050612ba2565b50829750879550505050505092915050565b6000612bf782613314565b612c01818561336d565b9350612c0c836132e4565b8060005b83811015612c3d578151612c248882612b5f565b9750612c2f83613342565b925050600181019050612c10565b5085935050505092915050565b6000612c558261331f565b612c5f818561336d565b9350612c6a836132f4565b8060005b83811015612ca257612c7f82613723565b612c898882612b5f565b9750612c948361334f565b925050600181019050612c6e565b5085935050505092915050565b612cb881613446565b82525050565b612cc7816134b9565b82525050565b612cd6816134cb565b82525050565b612ce581613478565b82525050565b612cf481613478565b82525050565b612d03816134dd565b82525050565b612d12816134ef565b82525050565b6000612d238261332a565b612d2d818561337e565b9350612d3d818560208601613510565b612d468161374f565b840191505092915050565b6000612d5c8261332a565b612d66818561338f565b9350612d76818560208601613510565b612d7f8161374f565b840191505092915050565b604082016000820151612da06000850182612cdc565b506020820151612db36020850182612cdc565b50505050565b612dc2816134a2565b82525050565b612dd1816134a2565b82525050565b612de0816134ac565b82525050565b6000602082019050612dfb6000830184612caf565b92915050565b60006020820190508181036000830152612e1b8184612d51565b905092915050565b6000610180820190508181036000830152612e3e818f612d51565b9050612e4d602083018e612ceb565b612e5a604083018d612ceb565b8181036060830152612e6c818c612b77565b9050612e7b608083018b612dd7565b81810360a0830152612e8d818a612d51565b9050612e9c60c0830189612dc8565b81810360e0830152612eae8188612bec565b9050612ebe610100830187612cfa565b612ecc610120830186612d09565b612eda610140830185612dc8565b612ee8610160830184612dc8565b9d9c50505050505050505050505050565b600060c0820190508181036000830152612f138189612d51565b9050612f226020830188612ceb565b612f2f6040830187612dc8565b8181036060830152612f418186612b77565b9050612f506080830185612dc8565b81810360a0830152612f628184612c4a565b9050979650505050505050565b6000602082019050612f846000830184612dc8565b92915050565b6000604082019050612f9f6000830185612dc8565b612fac6020830184612ceb565b9392505050565b600061010082019050612fc9600083018b612dc8565b612fd6602083018a612ceb565b612fe36040830189612dc8565b8181036060830152612ff58188612d51565b90506130046080830187612dc8565b61301160a0830186612caf565b61301e60c0830185612dc8565b61302b60e0830184612dc8565b9998505050505050505050565b600060808201905061304d6000830187612dc8565b818103602083015261305f8186612d51565b905061306e6040830185612ceb565b61307b6060830184612ceb565b95945050505050565b600060c0820190506130996000830188612dc8565b81810360208301526130ab8187612d51565b905081810360408301526130bf8186612d51565b905081810360608301526130d38185612d51565b90506130e26080830184612d8a565b9695505050505050565b600061010082019050613102600083018a612dc8565b81810360208301526131148189612d51565b905081810360408301526131288188612d51565b90506131376060830187612d8a565b61314460a0830186612dc8565b61315160c0830185612dc8565b61315e60e0830184612cbe565b98975050505050505050565b600061016082019050613180600083018d612dc8565b8181036020830152613192818c612d51565b90506131a1604083018b612dc8565b6131ae606083018a612ceb565b6131bb6080830189612dc8565b81810360a08301526131cd8188612d51565b90506131dc60c0830187612dc8565b6131e960e0830186612ccd565b6131f7610100830185612d8a565b613205610140830184612dc8565b9b9a5050505050505050505050565b60006060820190506132296000830186612dc8565b818103602083015261323b8185612d51565b905061324a6040830184612dd7565b949350505050565b600061325c61326d565b9050613268828261358f565b919050565b6000604051905090565b600067ffffffffffffffff821115613292576132916136f4565b5b602082029050602081019050919050565b600067ffffffffffffffff8211156132be576132bd6136f4565b5b6132c78261374f565b9050602081019050919050565b6000819050602082019050919050565b6000819050602082019050919050565b60008190508160005260206000209050919050565b600081519050919050565b600081519050919050565b600081549050919050565b600081519050919050565b6000602082019050919050565b6000602082019050919050565b6000600182019050919050565b600082825260208201905092915050565b600082825260208201905092915050565b600082825260208201905092915050565b600082825260208201905092915050565b60006133ab826134a2565b91506133b6836134a2565b9250827fffffffffffffffffffffffffffffffffffffffffffffffffffffffffffffffff038211156133eb576133ea613609565b5b828201905092915050565b6000613401826134a2565b915061340c836134a2565b92508282101561341f5761341e613609565b5b828203905092915050565b6000819050919050565b600061343f82613482565b9050919050565b60008115159050919050565b60008190506134608261376d565b919050565b600081905061347382613781565b919050565b6000819050919050565b600073ffffffffffffffffffffffffffffffffffffffff82169050919050565b6000819050919050565b600060ff82169050919050565b60006134c482613452565b9050919050565b60006134d682613465565b9050919050565b60006134e882613478565b9050919050565b60006134fa826134a2565b9050919050565b82818337600083830152505050565b60005b8381101561352e578082015181840152602081019050613513565b8381111561353d576000848401525b50505050565b6000600282049050600182168061355b57607f821691505b6020821081141561356f5761356e613667565b5b50919050565b600061358861358383613760565b61342a565b9050919050565b6135988261374f565b810181811067ffffffffffffffff821117156135b7576135b66136f4565b5b80604052505050565b60006135cb826134a2565b91507fffffffffffffffffffffffffffffffffffffffffffffffffffffffffffffffff8214156135fe576135fd613609565b5b600182019050919050565b7f4e487b7100000000000000000000000000000000000000000000000000000000600052601160045260246000fd5b7f4e487b7100000000000000000000000000000000000000000000000000000000600052602160045260246000fd5b7f4e487b7100000000000000000000000000000000000000000000000000000000600052602260045260246000fd5b7f4e487b7100000000000000000000000000000000000000000000000000000000600052603160045260246000fd5b7f4e487b7100000000000000000000000000000000000000000000000000000000600052603260045260246000fd5b7f4e487b7100000000000000000000000000000000000000000000000000000000600052604160045260246000fd5b600061372f8254613575565b9050919050565b600080fd5b600080fd5b600080fd5b600080fd5b600080fd5b6000601f19601f8301169050919050565b60008160001c9050919050565b6002811061377e5761377d613638565b5b50565b6005811061379257613791613638565b5b50565b61379e81613434565b81146137a957600080fd5b50565b600281106137b957600080fd5b50565b6137c581613478565b81146137d057600080fd5b50565b6137dc816134a2565b81146137e757600080fd5b5056fea2646970667358221220b712990150fa0f43d6fa2331c12b5d53ad373550b8305ecd4f3b1f4a8845bf0164736f6c63430008070033",
  "devdoc": {
    "kind": "dev",
    "methods": {},
    "version": 1
  },
  "userdoc": {
    "kind": "user",
    "methods": {},
    "version": 1
  },
  "storageLayout": {
    "storage": [
      {
        "astId": 144,
        "contract": "contracts/Marketplace.sol:Marketplace",
        "label": "userStores",
        "offset": 0,
        "slot": "0",
        "type": "t_mapping(t_address,t_mapping(t_uint256,t_struct(Store)137_storage))"
      },
      {
        "astId": 149,
        "contract": "contracts/Marketplace.sol:Marketplace",
        "label": "userStoreIds",
        "offset": 0,
        "slot": "1",
        "type": "t_mapping(t_address,t_array(t_uint256)dyn_storage)"
      },
      {
        "astId": 245,
        "contract": "contracts/Marketplace.sol:Marketplace",
        "label": "users",
        "offset": 0,
        "slot": "2",
        "type": "t_mapping(t_address,t_struct(User)166_storage)"
      },
      {
        "astId": 250,
        "contract": "contracts/Marketplace.sol:Marketplace",
        "label": "requests",
        "offset": 0,
        "slot": "3",
        "type": "t_mapping(t_uint256,t_struct(Request)198_storage)"
      },
      {
        "astId": 255,
        "contract": "contracts/Marketplace.sol:Marketplace",
        "label": "offers",
        "offset": 0,
        "slot": "4",
        "type": "t_mapping(t_uint256,t_struct(Offer)218_storage)"
      },
      {
        "astId": 257,
        "contract": "contracts/Marketplace.sol:Marketplace",
        "label": "_userCounter",
        "offset": 0,
        "slot": "5",
        "type": "t_uint256"
      },
      {
        "astId": 259,
        "contract": "contracts/Marketplace.sol:Marketplace",
        "label": "_storeCounter",
        "offset": 0,
        "slot": "6",
        "type": "t_uint256"
      },
      {
        "astId": 261,
        "contract": "contracts/Marketplace.sol:Marketplace",
        "label": "_requestCounter",
        "offset": 0,
        "slot": "7",
        "type": "t_uint256"
      },
      {
        "astId": 263,
        "contract": "contracts/Marketplace.sol:Marketplace",
        "label": "_offerCounter",
        "offset": 0,
        "slot": "8",
        "type": "t_uint256"
      }
    ],
    "types": {
      "t_address": {
        "encoding": "inplace",
        "label": "address",
        "numberOfBytes": "20"
      },
      "t_array(t_string_storage)dyn_storage": {
        "base": "t_string_storage",
        "encoding": "dynamic_array",
        "label": "string[]",
        "numberOfBytes": "32"
      },
      "t_array(t_uint256)dyn_storage": {
        "base": "t_uint256",
        "encoding": "dynamic_array",
        "label": "uint256[]",
        "numberOfBytes": "32"
      },
      "t_bool": {
        "encoding": "inplace",
        "label": "bool",
        "numberOfBytes": "1"
      },
      "t_enum(AccountType)114": {
        "encoding": "inplace",
        "label": "enum Marketplace.AccountType",
        "numberOfBytes": "1"
      },
      "t_enum(RequestLifecycle)120": {
        "encoding": "inplace",
        "label": "enum Marketplace.RequestLifecycle",
        "numberOfBytes": "1"
      },
      "t_int256": {
        "encoding": "inplace",
        "label": "int256",
        "numberOfBytes": "32"
      },
      "t_mapping(t_address,t_array(t_uint256)dyn_storage)": {
        "encoding": "mapping",
        "key": "t_address",
        "label": "mapping(address => uint256[])",
        "numberOfBytes": "32",
        "value": "t_array(t_uint256)dyn_storage"
      },
      "t_mapping(t_address,t_mapping(t_uint256,t_struct(Store)137_storage))": {
        "encoding": "mapping",
        "key": "t_address",
        "label": "mapping(address => mapping(uint256 => struct Marketplace.Store))",
        "numberOfBytes": "32",
        "value": "t_mapping(t_uint256,t_struct(Store)137_storage)"
      },
      "t_mapping(t_address,t_struct(User)166_storage)": {
        "encoding": "mapping",
        "key": "t_address",
        "label": "mapping(address => struct Marketplace.User)",
        "numberOfBytes": "32",
        "value": "t_struct(User)166_storage"
      },
      "t_mapping(t_uint256,t_struct(Offer)218_storage)": {
        "encoding": "mapping",
        "key": "t_uint256",
        "label": "mapping(uint256 => struct Marketplace.Offer)",
        "numberOfBytes": "32",
        "value": "t_struct(Offer)218_storage"
      },
      "t_mapping(t_uint256,t_struct(Request)198_storage)": {
        "encoding": "mapping",
        "key": "t_uint256",
        "label": "mapping(uint256 => struct Marketplace.Request)",
        "numberOfBytes": "32",
        "value": "t_struct(Request)198_storage"
      },
      "t_mapping(t_uint256,t_struct(Store)137_storage)": {
        "encoding": "mapping",
        "key": "t_uint256",
        "label": "mapping(uint256 => struct Marketplace.Store)",
        "numberOfBytes": "32",
        "value": "t_struct(Store)137_storage"
      },
      "t_string_storage": {
        "encoding": "bytes",
        "label": "string",
        "numberOfBytes": "32"
      },
      "t_struct(Location)125_storage": {
        "encoding": "inplace",
        "label": "struct Marketplace.Location",
        "members": [
          {
            "astId": 122,
            "contract": "contracts/Marketplace.sol:Marketplace",
            "label": "latitude",
            "offset": 0,
            "slot": "0",
            "type": "t_int256"
          },
          {
            "astId": 124,
            "contract": "contracts/Marketplace.sol:Marketplace",
            "label": "longitude",
            "offset": 0,
            "slot": "1",
            "type": "t_int256"
          }
        ],
        "numberOfBytes": "64"
      },
      "t_struct(Offer)218_storage": {
        "encoding": "inplace",
        "label": "struct Marketplace.Offer",
        "members": [
          {
            "astId": 200,
            "contract": "contracts/Marketplace.sol:Marketplace",
            "label": "id",
            "offset": 0,
            "slot": "0",
            "type": "t_uint256"
          },
          {
            "astId": 202,
            "contract": "contracts/Marketplace.sol:Marketplace",
            "label": "price",
            "offset": 0,
            "slot": "1",
            "type": "t_int256"
          },
          {
            "astId": 205,
            "contract": "contracts/Marketplace.sol:Marketplace",
            "label": "images",
            "offset": 0,
            "slot": "2",
            "type": "t_array(t_string_storage)dyn_storage"
          },
          {
            "astId": 207,
            "contract": "contracts/Marketplace.sol:Marketplace",
            "label": "requestId",
            "offset": 0,
            "slot": "3",
            "type": "t_uint256"
          },
          {
            "astId": 209,
            "contract": "contracts/Marketplace.sol:Marketplace",
            "label": "storeName",
            "offset": 0,
            "slot": "4",
            "type": "t_string_storage"
          },
          {
            "astId": 211,
            "contract": "contracts/Marketplace.sol:Marketplace",
            "label": "sellerId",
            "offset": 0,
            "slot": "5",
            "type": "t_uint256"
          },
          {
            "astId": 213,
            "contract": "contracts/Marketplace.sol:Marketplace",
            "label": "isAccepted",
            "offset": 0,
            "slot": "6",
            "type": "t_bool"
          },
          {
            "astId": 215,
            "contract": "contracts/Marketplace.sol:Marketplace",
            "label": "createdAt",
            "offset": 0,
            "slot": "7",
            "type": "t_uint256"
          },
          {
            "astId": 217,
            "contract": "contracts/Marketplace.sol:Marketplace",
            "label": "updatedAt",
            "offset": 0,
            "slot": "8",
            "type": "t_uint256"
          }
        ],
        "numberOfBytes": "288"
      },
      "t_struct(Request)198_storage": {
        "encoding": "inplace",
        "label": "struct Marketplace.Request",
        "members": [
          {
            "astId": 168,
            "contract": "contracts/Marketplace.sol:Marketplace",
            "label": "id",
            "offset": 0,
            "slot": "0",
            "type": "t_uint256"
          },
          {
            "astId": 170,
            "contract": "contracts/Marketplace.sol:Marketplace",
            "label": "name",
            "offset": 0,
            "slot": "1",
            "type": "t_string_storage"
          },
          {
            "astId": 172,
            "contract": "contracts/Marketplace.sol:Marketplace",
            "label": "buyerId",
            "offset": 0,
            "slot": "2",
            "type": "t_uint256"
          },
          {
            "astId": 174,
            "contract": "contracts/Marketplace.sol:Marketplace",
            "label": "sellersPriceQuote",
            "offset": 0,
            "slot": "3",
            "type": "t_int256"
          },
          {
            "astId": 177,
            "contract": "contracts/Marketplace.sol:Marketplace",
            "label": "sellerIds",
            "offset": 0,
            "slot": "4",
            "type": "t_array(t_uint256)dyn_storage"
          },
          {
            "astId": 180,
            "contract": "contracts/Marketplace.sol:Marketplace",
            "label": "offerIds",
            "offset": 0,
            "slot": "5",
            "type": "t_array(t_uint256)dyn_storage"
          },
          {
            "astId": 182,
            "contract": "contracts/Marketplace.sol:Marketplace",
            "label": "lockedSellerId",
            "offset": 0,
            "slot": "6",
            "type": "t_uint256"
          },
          {
            "astId": 184,
            "contract": "contracts/Marketplace.sol:Marketplace",
            "label": "description",
            "offset": 0,
            "slot": "7",
            "type": "t_string_storage"
          },
          {
            "astId": 187,
            "contract": "contracts/Marketplace.sol:Marketplace",
            "label": "images",
            "offset": 0,
            "slot": "8",
            "type": "t_array(t_string_storage)dyn_storage"
          },
          {
            "astId": 189,
            "contract": "contracts/Marketplace.sol:Marketplace",
            "label": "createdAt",
            "offset": 0,
            "slot": "9",
            "type": "t_uint256"
          },
          {
            "astId": 192,
            "contract": "contracts/Marketplace.sol:Marketplace",
            "label": "lifecycle",
            "offset": 0,
            "slot": "10",
            "type": "t_enum(RequestLifecycle)120"
          },
          {
            "astId": 195,
            "contract": "contracts/Marketplace.sol:Marketplace",
            "label": "location",
            "offset": 0,
            "slot": "11",
            "type": "t_struct(Location)125_storage"
          },
          {
            "astId": 197,
            "contract": "contracts/Marketplace.sol:Marketplace",
            "label": "updatedAt",
            "offset": 0,
            "slot": "13",
            "type": "t_uint256"
          }
        ],
        "numberOfBytes": "448"
      },
      "t_struct(Store)137_storage": {
        "encoding": "inplace",
        "label": "struct Marketplace.Store",
        "members": [
          {
            "astId": 127,
            "contract": "contracts/Marketplace.sol:Marketplace",
            "label": "id",
            "offset": 0,
            "slot": "0",
            "type": "t_uint256"
          },
          {
            "astId": 129,
            "contract": "contracts/Marketplace.sol:Marketplace",
            "label": "name",
            "offset": 0,
            "slot": "1",
            "type": "t_string_storage"
          },
          {
            "astId": 131,
            "contract": "contracts/Marketplace.sol:Marketplace",
            "label": "description",
            "offset": 0,
            "slot": "2",
            "type": "t_string_storage"
          },
          {
            "astId": 133,
            "contract": "contracts/Marketplace.sol:Marketplace",
            "label": "phone",
            "offset": 0,
            "slot": "3",
            "type": "t_string_storage"
          },
          {
            "astId": 136,
            "contract": "contracts/Marketplace.sol:Marketplace",
            "label": "location",
            "offset": 0,
            "slot": "4",
            "type": "t_struct(Location)125_storage"
          }
        ],
        "numberOfBytes": "192"
      },
      "t_struct(User)166_storage": {
        "encoding": "inplace",
        "label": "struct Marketplace.User",
        "members": [
          {
            "astId": 151,
            "contract": "contracts/Marketplace.sol:Marketplace",
            "label": "id",
            "offset": 0,
            "slot": "0",
            "type": "t_uint256"
          },
          {
            "astId": 153,
            "contract": "contracts/Marketplace.sol:Marketplace",
            "label": "username",
            "offset": 0,
            "slot": "1",
            "type": "t_string_storage"
          },
          {
            "astId": 155,
            "contract": "contracts/Marketplace.sol:Marketplace",
            "label": "phone",
            "offset": 0,
            "slot": "2",
            "type": "t_string_storage"
          },
          {
            "astId": 158,
            "contract": "contracts/Marketplace.sol:Marketplace",
            "label": "location",
            "offset": 0,
            "slot": "3",
            "type": "t_struct(Location)125_storage"
          },
          {
            "astId": 160,
            "contract": "contracts/Marketplace.sol:Marketplace",
            "label": "createdAt",
            "offset": 0,
            "slot": "5",
            "type": "t_uint256"
          },
          {
            "astId": 162,
            "contract": "contracts/Marketplace.sol:Marketplace",
            "label": "updatedAt",
            "offset": 0,
            "slot": "6",
            "type": "t_uint256"
          },
          {
            "astId": 165,
            "contract": "contracts/Marketplace.sol:Marketplace",
            "label": "accountType",
            "offset": 0,
            "slot": "7",
            "type": "t_enum(AccountType)114"
          }
        ],
        "numberOfBytes": "256"
      },
      "t_uint256": {
        "encoding": "inplace",
        "label": "uint256",
        "numberOfBytes": "32"
      }
    }
  }
}